{
  "contractName": "LeadStake",
  "abi": [
    {
      "inputs": [
        {
          "internalType": "address",
          "name": "_token",
          "type": "address"
        },
        {
          "internalType": "uint8",
          "name": "_stakingTaxRate",
          "type": "uint8"
        },
        {
          "internalType": "uint8",
          "name": "_unstakingTaxRate",
          "type": "uint8"
        },
        {
          "internalType": "uint8",
          "name": "_monthlyROI",
          "type": "uint8"
        },
        {
          "internalType": "uint256",
          "name": "_registrationTax",
          "type": "uint256"
        },
        {
          "internalType": "uint256",
          "name": "_referralTaxAllocation",
          "type": "uint256"
        },
        {
          "internalType": "uint256",
          "name": "_minimumStakeValue",
          "type": "uint256"
        }
      ],
      "stateMutability": "nonpayable",
      "type": "constructor"
    },
    {
      "anonymous": false,
      "inputs": [
        {
          "indexed": false,
          "internalType": "address",
          "name": "sender",
          "type": "address"
        },
        {
          "indexed": false,
          "internalType": "uint256",
          "name": "amount",
          "type": "uint256"
        },
        {
          "indexed": false,
          "internalType": "uint256",
          "name": "time",
          "type": "uint256"
        }
      ],
      "name": "OnDeposit",
      "type": "event"
    },
    {
      "anonymous": false,
      "inputs": [
        {
          "indexed": false,
          "internalType": "address",
          "name": "sender",
          "type": "address"
        },
        {
          "indexed": false,
          "internalType": "uint256",
          "name": "time",
          "type": "uint256"
        }
      ],
      "name": "OnDistribute",
      "type": "event"
    },
    {
      "anonymous": false,
      "inputs": [
        {
          "indexed": false,
          "internalType": "address",
          "name": "stakeholder",
          "type": "address"
        },
        {
          "indexed": false,
          "internalType": "uint256",
          "name": "amount",
          "type": "uint256"
        },
        {
          "indexed": false,
          "internalType": "uint256",
          "name": "totalTax",
          "type": "uint256"
        },
        {
          "indexed": false,
          "internalType": "address",
          "name": "_referrer",
          "type": "address"
        }
      ],
      "name": "OnRegisterAndStake",
      "type": "event"
    },
    {
      "anonymous": false,
      "inputs": [
        {
          "indexed": false,
          "internalType": "address",
          "name": "sender",
          "type": "address"
        },
        {
          "indexed": false,
          "internalType": "uint256",
          "name": "amount",
          "type": "uint256"
        },
        {
          "indexed": false,
          "internalType": "uint256",
          "name": "tax",
          "type": "uint256"
        }
      ],
      "name": "OnStake",
      "type": "event"
    },
    {
      "anonymous": false,
      "inputs": [
        {
          "indexed": false,
          "internalType": "address",
          "name": "sender",
          "type": "address"
        },
        {
          "indexed": false,
          "internalType": "uint256",
          "name": "amount",
          "type": "uint256"
        },
        {
          "indexed": false,
          "internalType": "uint256",
          "name": "tax",
          "type": "uint256"
        }
      ],
      "name": "OnUnstake",
      "type": "event"
    },
    {
      "anonymous": false,
      "inputs": [
        {
          "indexed": false,
          "internalType": "address",
          "name": "sender",
          "type": "address"
        },
        {
          "indexed": false,
          "internalType": "uint256",
          "name": "amount",
          "type": "uint256"
        }
      ],
      "name": "OnWithdrawal",
      "type": "event"
    },
    {
      "anonymous": false,
      "inputs": [
        {
          "indexed": true,
          "internalType": "address",
          "name": "previousOwner",
          "type": "address"
        },
        {
          "indexed": true,
          "internalType": "address",
          "name": "newOwner",
          "type": "address"
        }
      ],
      "name": "OwnershipTransferred",
      "type": "event"
    },
    {
      "inputs": [],
      "name": "lead",
      "outputs": [
        {
          "internalType": "address",
          "name": "",
          "type": "address"
        }
      ],
      "stateMutability": "view",
      "type": "function",
      "constant": true
    },
    {
      "inputs": [],
      "name": "minimumStakeValue",
      "outputs": [
        {
          "internalType": "uint256",
          "name": "",
          "type": "uint256"
        }
      ],
      "stateMutability": "view",
      "type": "function",
      "constant": true
    },
    {
      "inputs": [],
      "name": "monthlyROI",
      "outputs": [
        {
          "internalType": "uint8",
          "name": "",
          "type": "uint8"
        }
      ],
      "stateMutability": "view",
      "type": "function",
      "constant": true
    },
    {
      "inputs": [],
      "name": "owner",
      "outputs": [
        {
          "internalType": "address",
          "name": "",
          "type": "address"
        }
      ],
      "stateMutability": "view",
      "type": "function",
      "constant": true
    },
    {
      "inputs": [
        {
          "internalType": "address",
          "name": "",
          "type": "address"
        }
      ],
      "name": "referralCount",
      "outputs": [
        {
          "internalType": "uint256",
          "name": "",
          "type": "uint256"
        }
      ],
      "stateMutability": "view",
      "type": "function",
      "constant": true
    },
    {
      "inputs": [
        {
          "internalType": "address",
          "name": "",
          "type": "address"
        }
      ],
      "name": "referralRewards",
      "outputs": [
        {
          "internalType": "uint256",
          "name": "",
          "type": "uint256"
        }
      ],
      "stateMutability": "view",
      "type": "function",
      "constant": true
    },
    {
      "inputs": [],
      "name": "referralTaxAllocation",
      "outputs": [
        {
          "internalType": "uint256",
          "name": "",
          "type": "uint256"
        }
      ],
      "stateMutability": "view",
      "type": "function",
      "constant": true
    },
    {
      "inputs": [
        {
          "internalType": "address",
          "name": "",
          "type": "address"
        }
      ],
      "name": "registered",
      "outputs": [
        {
          "internalType": "bool",
          "name": "",
          "type": "bool"
        }
      ],
      "stateMutability": "view",
      "type": "function",
      "constant": true
    },
    {
      "inputs": [],
      "name": "registrationTax",
      "outputs": [
        {
          "internalType": "uint256",
          "name": "",
          "type": "uint256"
        }
      ],
      "stateMutability": "view",
      "type": "function",
      "constant": true
    },
    {
      "inputs": [],
      "name": "renounceOwnership",
      "outputs": [],
      "stateMutability": "nonpayable",
      "type": "function"
    },
    {
      "inputs": [
        {
          "internalType": "address",
          "name": "",
          "type": "address"
        }
      ],
      "name": "stakeRewards",
      "outputs": [
        {
          "internalType": "uint256",
          "name": "",
          "type": "uint256"
        }
      ],
      "stateMutability": "view",
      "type": "function",
      "constant": true
    },
    {
      "inputs": [
        {
          "internalType": "uint256",
          "name": "",
          "type": "uint256"
        }
      ],
      "name": "stakeholders",
      "outputs": [
        {
          "internalType": "address",
          "name": "",
          "type": "address"
        }
      ],
      "stateMutability": "view",
      "type": "function",
      "constant": true
    },
    {
      "inputs": [
        {
          "internalType": "address",
          "name": "",
          "type": "address"
        }
      ],
      "name": "stakes",
      "outputs": [
        {
          "internalType": "uint256",
          "name": "",
          "type": "uint256"
        }
      ],
      "stateMutability": "view",
      "type": "function",
      "constant": true
    },
    {
      "inputs": [],
      "name": "stakingTaxRate",
      "outputs": [
        {
          "internalType": "uint256",
          "name": "",
          "type": "uint256"
        }
      ],
      "stateMutability": "view",
      "type": "function",
      "constant": true
    },
    {
      "inputs": [],
      "name": "totalDistributed",
      "outputs": [
        {
          "internalType": "uint256",
          "name": "",
          "type": "uint256"
        }
      ],
      "stateMutability": "view",
      "type": "function",
      "constant": true
    },
    {
      "inputs": [],
      "name": "totalStaked",
      "outputs": [
        {
          "internalType": "uint256",
          "name": "",
          "type": "uint256"
        }
      ],
      "stateMutability": "view",
      "type": "function",
      "constant": true
    },
    {
      "inputs": [
        {
          "internalType": "address",
          "name": "newOwner",
          "type": "address"
        }
      ],
      "name": "transferOwnership",
      "outputs": [],
      "stateMutability": "nonpayable",
      "type": "function"
    },
    {
      "inputs": [],
      "name": "unstakingTaxRate",
      "outputs": [
        {
          "internalType": "uint256",
          "name": "",
          "type": "uint256"
        }
      ],
      "stateMutability": "view",
      "type": "function",
      "constant": true
    },
    {
      "inputs": [
        {
          "internalType": "uint256",
          "name": "_amount",
          "type": "uint256"
        },
        {
          "internalType": "address",
          "name": "_referrer",
          "type": "address"
        }
      ],
      "name": "registerAndStake",
      "outputs": [],
      "stateMutability": "nonpayable",
      "type": "function"
    },
    {
      "inputs": [
        {
          "internalType": "uint256",
          "name": "_amount",
          "type": "uint256"
        }
      ],
      "name": "stake",
      "outputs": [],
      "stateMutability": "nonpayable",
      "type": "function"
    },
    {
      "inputs": [
        {
          "internalType": "uint256",
          "name": "_amount",
          "type": "uint256"
        }
      ],
      "name": "unstake",
      "outputs": [],
      "stateMutability": "nonpayable",
      "type": "function"
    },
    {
      "inputs": [],
      "name": "distribute",
      "outputs": [],
      "stateMutability": "nonpayable",
      "type": "function"
    },
    {
      "inputs": [],
      "name": "withdrawEarnings",
      "outputs": [
        {
          "internalType": "bool",
          "name": "success",
          "type": "bool"
        }
      ],
      "stateMutability": "nonpayable",
      "type": "function"
    },
    {
      "inputs": [
        {
          "internalType": "uint8",
          "name": "_stakingTaxRate",
          "type": "uint8"
        }
      ],
      "name": "setStakingTaxRate",
      "outputs": [],
      "stateMutability": "nonpayable",
      "type": "function"
    },
    {
      "inputs": [
        {
          "internalType": "uint8",
          "name": "_unstakingTaxRate",
          "type": "uint8"
        }
      ],
      "name": "setUnstakingTaxRate",
      "outputs": [],
      "stateMutability": "nonpayable",
      "type": "function"
    },
    {
      "inputs": [
        {
          "internalType": "uint8",
          "name": "_monthlyROI",
          "type": "uint8"
        }
      ],
      "name": "setMonthlyROI",
      "outputs": [],
      "stateMutability": "nonpayable",
      "type": "function"
    },
    {
      "inputs": [
        {
          "internalType": "uint256",
          "name": "_registrationTax",
          "type": "uint256"
        }
      ],
      "name": "setRegistrationTax",
      "outputs": [],
      "stateMutability": "nonpayable",
      "type": "function"
    },
    {
      "inputs": [
        {
          "internalType": "uint256",
          "name": "_referralTaxAllocation",
          "type": "uint256"
        }
      ],
      "name": "setReferralTaxAllocation",
      "outputs": [],
      "stateMutability": "nonpayable",
      "type": "function"
    },
    {
      "inputs": [
        {
          "internalType": "uint256",
          "name": "_minimumStakeValue",
          "type": "uint256"
        }
      ],
      "name": "setMinimumStakeValue",
      "outputs": [],
      "stateMutability": "nonpayable",
      "type": "function"
    }
  ],
  "bytecode": "0x60806040523480156200001157600080fd5b5060405162003af538038062003af5833981810160405260e08110156200003757600080fd5b8101908080519060200190929190805190602001909291908051906020019092919080519060200190929190805190602001909291908051906020019092919080519060200190929190505050600062000096620001c660201b60201c565b9050806000806101000a81548173ffffffffffffffffffffffffffffffffffffffff021916908373ffffffffffffffffffffffffffffffffffffffff1602179055508073ffffffffffffffffffffffffffffffffffffffff16600073ffffffffffffffffffffffffffffffffffffffff167f8be0079c531659141344cd1fd0a4f28419497f9722a3daafe3b4186f6b6457e060405160405180910390a35086600160006101000a81548173ffffffffffffffffffffffffffffffffffffffff021916908373ffffffffffffffffffffffffffffffffffffffff1602179055508560ff166003819055508460ff1660078190555083600560006101000a81548160ff021916908360ff16021790555082600481905550816009819055508060088190555050505050505050620001ce565b600033905090565b61391780620001de6000396000f3fe608060405234801561001057600080fd5b50600436106101cf5760003560e01c80638da5cb5b11610104578063cc62db5b116100a2578063efca2eed11610071578063efca2eed146106b2578063f24ee7d3146106d0578063f2fde38b1461071e578063fbfaa24d14610762576101cf565b8063cc62db5b14610601578063db74559b14610632578063e4fc6b6d1461068a578063efad16a814610694576101cf565b8063b60dbb5b116100de578063b60dbb5b1461052a578063b73c6ce914610558578063c428e11414610578578063ca9a1da9146105d0576101cf565b80638da5cb5b1461046e578063a694fc3a146104a2578063b2dd5c07146104d0576101cf565b80632e17de781161017157806353aaa63b1161014b57806353aaa63b146103d057806370f0f38714610428578063715018a614610446578063817b1cd214610450576101cf565b80632e17de781461034057806346bb0a161461036e5780634be4d790146103a2576101cf565b806318e1fbfc116101ad57806318e1fbfc146102785780631d6b8b7214610296578063269e3e3a146102ee578063275bb89b1461031f576101cf565b806306693604146101d45780630aca582e1461020257806316934fc414610220575b600080fd5b610200600480360360208110156101ea57600080fd5b8101908080359060200190929190505050610780565b005b61020a610852565b6040518082815260200191505060405180910390f35b6102626004803603602081101561023657600080fd5b81019080803573ffffffffffffffffffffffffffffffffffffffff169060200190929190505050610858565b6040518082815260200191505060405180910390f35b610280610870565b6040518082815260200191505060405180910390f35b6102c2600480360360208110156102ac57600080fd5b8101908080359060200190929190505050610876565b604051808273ffffffffffffffffffffffffffffffffffffffff16815260200191505060405180910390f35b61031d6004803603602081101561030457600080fd5b81019080803560ff1690602001909291905050506108b2565b005b610327610987565b604051808260ff16815260200191505060405180910390f35b61036c6004803603602081101561035657600080fd5b810190808035906020019092919050505061099a565b005b610376610f34565b604051808273ffffffffffffffffffffffffffffffffffffffff16815260200191505060405180910390f35b6103ce600480360360208110156103b857600080fd5b8101908080359060200190929190505050610f5a565b005b610412600480360360208110156103e657600080fd5b81019080803573ffffffffffffffffffffffffffffffffffffffff16906020019092919050505061102c565b6040518082815260200191505060405180910390f35b610430611044565b6040518082815260200191505060405180910390f35b61044e61104a565b005b6104586111d0565b6040518082815260200191505060405180910390f35b6104766111d6565b604051808273ffffffffffffffffffffffffffffffffffffffff16815260200191505060405180910390f35b6104ce600480360360208110156104b857600080fd5b81019080803590602001909291905050506111ff565b005b610512600480360360208110156104e657600080fd5b81019080803573ffffffffffffffffffffffffffffffffffffffff1690602001909291905050506116de565b60405180821515815260200191505060405180910390f35b6105566004803603602081101561054057600080fd5b81019080803590602001909291905050506116fe565b005b6105606117d0565b60405180821515815260200191505060405180910390f35b6105ba6004803603602081101561058e57600080fd5b81019080803573ffffffffffffffffffffffffffffffffffffffff169060200190929190505050611c27565b6040518082815260200191505060405180910390f35b6105ff600480360360208110156105e657600080fd5b81019080803560ff169060200190929190505050611c3f565b005b6106306004803603602081101561061757600080fd5b81019080803560ff169060200190929190505050611d25565b005b6106746004803603602081101561064857600080fd5b81019080803573ffffffffffffffffffffffffffffffffffffffff169060200190929190505050611dfa565b6040518082815260200191505060405180910390f35b610692611e12565b005b61069c6123e2565b6040518082815260200191505060405180910390f35b6106ba6123e8565b6040518082815260200191505060405180910390f35b61071c600480360360408110156106e657600080fd5b8101908080359060200190929190803573ffffffffffffffffffffffffffffffffffffffff1690602001909291905050506123ee565b005b6107606004803603602081101561073457600080fd5b81019080803573ffffffffffffffffffffffffffffffffffffffff169060200190929190505050612bd3565b005b61076a612dde565b6040518082815260200191505060405180910390f35b610788612de4565b73ffffffffffffffffffffffffffffffffffffffff1660008054906101000a900473ffffffffffffffffffffffffffffffffffffffff1673ffffffffffffffffffffffffffffffffffffffff1614610848576040517f08c379a00000000000000000000000000000000000000000000000000000000081526004018080602001828103825260208152602001807f4f776e61626c653a2063616c6c6572206973206e6f7420746865206f776e657281525060200191505060405180910390fd5b8060048190555050565b60045481565b600b6020528060005260406000206000915090505481565b60085481565b600a818154811061088357fe5b906000526020600020016000915054906101000a900473ffffffffffffffffffffffffffffffffffffffff1681565b6108ba612de4565b73ffffffffffffffffffffffffffffffffffffffff1660008054906101000a900473ffffffffffffffffffffffffffffffffffffffff1673ffffffffffffffffffffffffffffffffffffffff161461097a576040517f08c379a00000000000000000000000000000000000000000000000000000000081526004018080602001828103825260208152602001807f4f776e61626c653a2063616c6c6572206973206e6f7420746865206f776e657281525060200191505060405180910390fd5b8060ff1660038190555050565b600560009054906101000a900460ff1681565b60011515600f60003373ffffffffffffffffffffffffffffffffffffffff1673ffffffffffffffffffffffffffffffffffffffff16815260200190815260200160002060009054906101000a900460ff16151514610a60576040517f08c379a00000000000000000000000000000000000000000000000000000000081526004018080602001828103825260198152602001807f5374616b6572206d75737420626520726567697374657265640000000000000081525060200191505060405180910390fd5b600b60003373ffffffffffffffffffffffffffffffffffffffff1673ffffffffffffffffffffffffffffffffffffffff16815260200190815260200160002054811115610b15576040517f08c379a000000000000000000000000000000000000000000000000000000000815260040180806020018281038252601f8152602001807f496e73756666696369656e742062616c616e636520746f20756e7374616b650081525060200191505060405180910390fd5b6000610b3f6064610b3184600754612dec90919063ffffffff16565b612e7290919063ffffffff16565b9050610bf681610be884610bda600e60003373ffffffffffffffffffffffffffffffffffffffff1673ffffffffffffffffffffffffffffffffffffffff16815260200190815260200160002054600c60003373ffffffffffffffffffffffffffffffffffffffff1673ffffffffffffffffffffffffffffffffffffffff16815260200190815260200160002054612ebc90919063ffffffff16565b612ebc90919063ffffffff16565b612f4490919063ffffffff16565b600c60003373ffffffffffffffffffffffffffffffffffffffff1673ffffffffffffffffffffffffffffffffffffffff16815260200190815260200160002081905550600160009054906101000a900473ffffffffffffffffffffffffffffffffffffffff1673ffffffffffffffffffffffffffffffffffffffff1663a9059cbb33600c60003373ffffffffffffffffffffffffffffffffffffffff1673ffffffffffffffffffffffffffffffffffffffff168152602001908152602001600020546040518363ffffffff1660e01b8152600401808373ffffffffffffffffffffffffffffffffffffffff16815260200182815260200192505050602060405180830381600087803b158015610d0b57600080fd5b505af1158015610d1f573d6000803e3d6000fd5b505050506040513d6020811015610d3557600080fd5b810190808051906020019092919050505050610d9982600b60003373ffffffffffffffffffffffffffffffffffffffff1673ffffffffffffffffffffffffffffffffffffffff16815260200190815260200160002054612f4490919063ffffffff16565b600b60003373ffffffffffffffffffffffffffffffffffffffff1673ffffffffffffffffffffffffffffffffffffffff168152602001908152602001600020819055506000600e60003373ffffffffffffffffffffffffffffffffffffffff1673ffffffffffffffffffffffffffffffffffffffff168152602001908152602001600020819055506000600d60003373ffffffffffffffffffffffffffffffffffffffff1673ffffffffffffffffffffffffffffffffffffffff16815260200190815260200160002081905550610e7b82600254612f4490919063ffffffff16565b6002819055506000600b60003373ffffffffffffffffffffffffffffffffffffffff1673ffffffffffffffffffffffffffffffffffffffff168152602001908152602001600020541415610ed357610ed233612f8e565b5b7fefe5e683dfe58f596b38874c815bc9599676515f5e641a3305c40aba31c822a7338383604051808473ffffffffffffffffffffffffffffffffffffffff168152602001838152602001828152602001935050505060405180910390a15050565b600160009054906101000a900473ffffffffffffffffffffffffffffffffffffffff1681565b610f62612de4565b73ffffffffffffffffffffffffffffffffffffffff1660008054906101000a900473ffffffffffffffffffffffffffffffffffffffff1673ffffffffffffffffffffffffffffffffffffffff1614611022576040517f08c379a00000000000000000000000000000000000000000000000000000000081526004018080602001828103825260208152602001807f4f776e61626c653a2063616c6c6572206973206e6f7420746865206f776e657281525060200191505060405180910390fd5b8060088190555050565b600e6020528060005260406000206000915090505481565b60035481565b611052612de4565b73ffffffffffffffffffffffffffffffffffffffff1660008054906101000a900473ffffffffffffffffffffffffffffffffffffffff1673ffffffffffffffffffffffffffffffffffffffff1614611112576040517f08c379a00000000000000000000000000000000000000000000000000000000081526004018080602001828103825260208152602001807f4f776e61626c653a2063616c6c6572206973206e6f7420746865206f776e657281525060200191505060405180910390fd5b600073ffffffffffffffffffffffffffffffffffffffff1660008054906101000a900473ffffffffffffffffffffffffffffffffffffffff1673ffffffffffffffffffffffffffffffffffffffff167f8be0079c531659141344cd1fd0a4f28419497f9722a3daafe3b4186f6b6457e060405160405180910390a360008060006101000a81548173ffffffffffffffffffffffffffffffffffffffff021916908373ffffffffffffffffffffffffffffffffffffffff160217905550565b60025481565b60008060009054906101000a900473ffffffffffffffffffffffffffffffffffffffff16905090565b60011515600f60003373ffffffffffffffffffffffffffffffffffffffff1673ffffffffffffffffffffffffffffffffffffffff16815260200190815260200160002060009054906101000a900460ff161515146112c5576040517f08c379a00000000000000000000000000000000000000000000000000000000081526004018080602001828103825260198152602001807f5374616b6572206d75737420626520726567697374657265640000000000000081525060200191505060405180910390fd5b600854811015611320576040517f08c379a00000000000000000000000000000000000000000000000000000000081526004018080602001828103825260248152602001806138be6024913960400191505060405180910390fd5b80600160009054906101000a900473ffffffffffffffffffffffffffffffffffffffff1673ffffffffffffffffffffffffffffffffffffffff166370a08231336040518263ffffffff1660e01b8152600401808273ffffffffffffffffffffffffffffffffffffffff16815260200191505060206040518083038186803b1580156113aa57600080fd5b505afa1580156113be573d6000803e3d6000fd5b505050506040513d60208110156113d457600080fd5b8101908080519060200190929190505050101561143c576040517f08c379a00000000000000000000000000000000000000000000000000000000081526004018080602001828103825260218152602001806137f16021913960400191505060405180910390fd5b600160009054906101000a900473ffffffffffffffffffffffffffffffffffffffff1673ffffffffffffffffffffffffffffffffffffffff166323b872dd3330846040518463ffffffff1660e01b8152600401808473ffffffffffffffffffffffffffffffffffffffff1681526020018373ffffffffffffffffffffffffffffffffffffffff1681526020018281526020019350505050602060405180830381600087803b1580156114ed57600080fd5b505af1158015611501573d6000803e3d6000fd5b505050506040513d602081101561151757600080fd5b810190808051906020019092919050505061157d576040517f08c379a000000000000000000000000000000000000000000000000000000000815260040180806020018281038252602b815260200180613893602b913960400191505060405180910390fd5b60006115a7606461159984600354612dec90919063ffffffff16565b612e7290919063ffffffff16565b90506115d0816115c284600254612ebc90919063ffffffff16565b612f4490919063ffffffff16565b60028190555061163a8161162c84600b60003373ffffffffffffffffffffffffffffffffffffffff1673ffffffffffffffffffffffffffffffffffffffff16815260200190815260200160002054612ebc90919063ffffffff16565b612f4490919063ffffffff16565b600b60003373ffffffffffffffffffffffffffffffffffffffff1673ffffffffffffffffffffffffffffffffffffffff168152602001908152602001600020819055507ffeb41de252fbc1de97d95a27ed44f6044e66e11df6ca319955eef830b598fdb4338383604051808473ffffffffffffffffffffffffffffffffffffffff168152602001838152602001828152602001935050505060405180910390a15050565b600f6020528060005260406000206000915054906101000a900460ff1681565b611706612de4565b73ffffffffffffffffffffffffffffffffffffffff1660008054906101000a900473ffffffffffffffffffffffffffffffffffffffff1673ffffffffffffffffffffffffffffffffffffffff16146117c6576040517f08c379a00000000000000000000000000000000000000000000000000000000081526004018080602001828103825260208152602001807f4f776e61626c653a2063616c6c6572206973206e6f7420746865206f776e657281525060200191505060405180910390fd5b8060098190555050565b600060011515600f60003373ffffffffffffffffffffffffffffffffffffffff1673ffffffffffffffffffffffffffffffffffffffff16815260200190815260200160002060009054906101000a900460ff16151514611898576040517f08c379a00000000000000000000000000000000000000000000000000000000081526004018080602001828103825260198152602001807f5374616b6572206d75737420626520726567697374657265640000000000000081525060200191505060405180910390fd5b6000600c60003373ffffffffffffffffffffffffffffffffffffffff1673ffffffffffffffffffffffffffffffffffffffff16815260200190815260200160002054118061192557506000600e60003373ffffffffffffffffffffffffffffffffffffffff1673ffffffffffffffffffffffffffffffffffffffff16815260200190815260200160002054115b611997576040517f08c379a00000000000000000000000000000000000000000000000000000000081526004018080602001828103825260158152602001807f4e6f2072657761726420746f207769746864726177000000000000000000000081525060200191505060405180910390fd5b6000611a2a600c60003373ffffffffffffffffffffffffffffffffffffffff1673ffffffffffffffffffffffffffffffffffffffff16815260200190815260200160002054600e60003373ffffffffffffffffffffffffffffffffffffffff1673ffffffffffffffffffffffffffffffffffffffff16815260200190815260200160002054612ebc90919063ffffffff16565b9050600160009054906101000a900473ffffffffffffffffffffffffffffffffffffffff1673ffffffffffffffffffffffffffffffffffffffff1663a9059cbb33836040518363ffffffff1660e01b8152600401808373ffffffffffffffffffffffffffffffffffffffff16815260200182815260200192505050602060405180830381600087803b158015611abf57600080fd5b505af1158015611ad3573d6000803e3d6000fd5b505050506040513d6020811015611ae957600080fd5b8101908080519060200190929190505050506000600c60003373ffffffffffffffffffffffffffffffffffffffff1673ffffffffffffffffffffffffffffffffffffffff168152602001908152602001600020819055506000600e60003373ffffffffffffffffffffffffffffffffffffffff1673ffffffffffffffffffffffffffffffffffffffff168152602001908152602001600020819055506000600d60003373ffffffffffffffffffffffffffffffffffffffff1673ffffffffffffffffffffffffffffffffffffffff168152602001908152602001600020819055507fefbfe3c015941f3419cd0c7f713fd74c6874d0da2d765adc7f700370ccd5ba5c3382604051808373ffffffffffffffffffffffffffffffffffffffff1681526020018281526020019250505060405180910390a1600191505090565b600c6020528060005260406000206000915090505481565b611c47612de4565b73ffffffffffffffffffffffffffffffffffffffff1660008054906101000a900473ffffffffffffffffffffffffffffffffffffffff1673ffffffffffffffffffffffffffffffffffffffff1614611d07576040517f08c379a00000000000000000000000000000000000000000000000000000000081526004018080602001828103825260208152602001807f4f776e61626c653a2063616c6c6572206973206e6f7420746865206f776e657281525060200191505060405180910390fd5b80600560006101000a81548160ff021916908360ff16021790555050565b611d2d612de4565b73ffffffffffffffffffffffffffffffffffffffff1660008054906101000a900473ffffffffffffffffffffffffffffffffffffffff1673ffffffffffffffffffffffffffffffffffffffff1614611ded576040517f08c379a00000000000000000000000000000000000000000000000000000000081526004018080602001828103825260208152602001807f4f776e61626c653a2063616c6c6572206973206e6f7420746865206f776e657281525060200191505060405180910390fd5b8060ff1660078190555050565b600d6020528060005260406000206000915090505481565b611e1a612de4565b73ffffffffffffffffffffffffffffffffffffffff1660008054906101000a900473ffffffffffffffffffffffffffffffffffffffff1673ffffffffffffffffffffffffffffffffffffffff1614611eda576040517f08c379a00000000000000000000000000000000000000000000000000000000081526004018080602001828103825260208152602001807f4f776e61626c653a2063616c6c6572206973206e6f7420746865206f776e657281525060200191505060405180910390fd5b600080600090505b600a805490508110156121df576000611f31600a8381548110611f0157fe5b9060005260206000200160009054906101000a900473ffffffffffffffffffffffffffffffffffffffff166130d7565b9050611fbc81600c6000600a8681548110611f4857fe5b9060005260206000200160009054906101000a900473ffffffffffffffffffffffffffffffffffffffff1673ffffffffffffffffffffffffffffffffffffffff1673ffffffffffffffffffffffffffffffffffffffff16815260200190815260200160002054612ebc90919063ffffffff16565b600c6000600a8581548110611fcd57fe5b9060005260206000200160009054906101000a900473ffffffffffffffffffffffffffffffffffffffff1673ffffffffffffffffffffffffffffffffffffffff1673ffffffffffffffffffffffffffffffffffffffff168152602001908152602001600020819055506121cf600e6000600a858154811061204a57fe5b9060005260206000200160009054906101000a900473ffffffffffffffffffffffffffffffffffffffff1673ffffffffffffffffffffffffffffffffffffffff1673ffffffffffffffffffffffffffffffffffffffff168152602001908152602001600020546121c1600c6000600a87815481106120c457fe5b9060005260206000200160009054906101000a900473ffffffffffffffffffffffffffffffffffffffff1673ffffffffffffffffffffffffffffffffffffffff1673ffffffffffffffffffffffffffffffffffffffff168152602001908152602001600020546121b3600b6000600a898154811061213e57fe5b9060005260206000200160009054906101000a900473ffffffffffffffffffffffffffffffffffffffff1673ffffffffffffffffffffffffffffffffffffffff1673ffffffffffffffffffffffffffffffffffffffff1681526020019081526020016000205488612ebc90919063ffffffff16565b612ebc90919063ffffffff16565b612ebc90919063ffffffff16565b9250508080600101915050611ee2565b50600160009054906101000a900473ffffffffffffffffffffffffffffffffffffffff1673ffffffffffffffffffffffffffffffffffffffff166370a08231306040518263ffffffff1660e01b8152600401808273ffffffffffffffffffffffffffffffffffffffff16815260200191505060206040518083038186803b15801561226957600080fd5b505afa15801561227d573d6000803e3d6000fd5b505050506040513d602081101561229357600080fd5b810190808051906020019092919050505081111561238a57612389612384600160009054906101000a900473ffffffffffffffffffffffffffffffffffffffff1673ffffffffffffffffffffffffffffffffffffffff166370a08231306040518263ffffffff1660e01b8152600401808273ffffffffffffffffffffffffffffffffffffffff16815260200191505060206040518083038186803b15801561233a57600080fd5b505afa15801561234e573d6000803e3d6000fd5b505050506040513d602081101561236457600080fd5b810190808051906020019092919050505083612f4490919063ffffffff16565b613337565b5b7f3b5b764958bcf10eae6e214b635b729c52c8a4962688629cf597c3167cca20223342604051808373ffffffffffffffffffffffffffffffffffffffff1681526020018281526020019250505060405180910390a150565b60095481565b60065481565b60001515600f60003373ffffffffffffffffffffffffffffffffffffffff1673ffffffffffffffffffffffffffffffffffffffff16815260200190815260200160002060009054906101000a900460ff161515146124b4576040517f08c379a000000000000000000000000000000000000000000000000000000000815260040180806020018281038252601c8152602001807f5374616b657220697320616c726561647920726567697374657265640000000081525060200191505060405180910390fd5b8073ffffffffffffffffffffffffffffffffffffffff163373ffffffffffffffffffffffffffffffffffffffff161415612556576040517f08c379a00000000000000000000000000000000000000000000000000000000081526004018080602001828103825260118152602001807f43616e6e6f742072656665722073656c6600000000000000000000000000000081525060200191505060405180910390fd5b81600160009054906101000a900473ffffffffffffffffffffffffffffffffffffffff1673ffffffffffffffffffffffffffffffffffffffff166370a08231336040518263ffffffff1660e01b8152600401808273ffffffffffffffffffffffffffffffffffffffff16815260200191505060206040518083038186803b1580156125e057600080fd5b505afa1580156125f4573d6000803e3d6000fd5b505050506040513d602081101561260a57600080fd5b81019080805190602001909291905050501015612672576040517f08c379a00000000000000000000000000000000000000000000000000000000081526004018080602001828103825260218152602001806137f16021913960400191505060405180910390fd5b600160009054906101000a900473ffffffffffffffffffffffffffffffffffffffff1673ffffffffffffffffffffffffffffffffffffffff166323b872dd3330856040518463ffffffff1660e01b8152600401808473ffffffffffffffffffffffffffffffffffffffff1681526020018373ffffffffffffffffffffffffffffffffffffffff1681526020018281526020019350505050602060405180830381600087803b15801561272357600080fd5b505af1158015612737573d6000803e3d6000fd5b505050506040513d602081101561274d57600080fd5b81019080805190602001909291905050506127b3576040517f08c379a000000000000000000000000000000000000000000000000000000000815260040180806020018281038252602b815260200180613893602b913960400191505060405180910390fd5b6127ca600854600454612ebc90919063ffffffff16565b821015612822576040517f08c379a00000000000000000000000000000000000000000000000000000000081526004018080602001828103825260378152602001806138336037913960400191505060405180910390fd5b600061284e6064612840600954600454612dec90919063ffffffff16565b612e7290919063ffffffff16565b9050600061286760045485612f4490919063ffffffff16565b90506000612893606461288584600354612dec90919063ffffffff16565b612e7290919063ffffffff16565b9050600073ffffffffffffffffffffffffffffffffffffffff168473ffffffffffffffffffffffffffffffffffffffff16146129ae57600d60008573ffffffffffffffffffffffffffffffffffffffff1673ffffffffffffffffffffffffffffffffffffffff1681526020019081526020016000206000815480929190600101919050555061296a83600e60008773ffffffffffffffffffffffffffffffffffffffff1673ffffffffffffffffffffffffffffffffffffffff16815260200190815260200160002054612ebc90919063ffffffff16565b600e60008673ffffffffffffffffffffffffffffffffffffffff1673ffffffffffffffffffffffffffffffffffffffff168152602001908152602001600020819055505b612a1281612a0484600b60003373ffffffffffffffffffffffffffffffffffffffff1673ffffffffffffffffffffffffffffffffffffffff16815260200190815260200160002054612ebc90919063ffffffff16565b612f4490919063ffffffff16565b600b60003373ffffffffffffffffffffffffffffffffffffffff1673ffffffffffffffffffffffffffffffffffffffff16815260200190815260200160002081905550612a7c81612a6e84600254612ebc90919063ffffffff16565b612f4490919063ffffffff16565b6002819055506001600f60003373ffffffffffffffffffffffffffffffffffffffff1673ffffffffffffffffffffffffffffffffffffffff16815260200190815260200160002060006101000a81548160ff021916908315150217905550600a339080600181540180825580915050600190039060005260206000200160009091909190916101000a81548173ffffffffffffffffffffffffffffffffffffffff021916908373ffffffffffffffffffffffffffffffffffffffff1602179055507f2aef494423269f61b2dd75f1f1e289ef00d20b5a68bd5a6740c518cddd9a865b3386612b7584600454612ebc90919063ffffffff16565b87604051808573ffffffffffffffffffffffffffffffffffffffff1681526020018481526020018381526020018273ffffffffffffffffffffffffffffffffffffffff16815260200194505050505060405180910390a15050505050565b612bdb612de4565b73ffffffffffffffffffffffffffffffffffffffff1660008054906101000a900473ffffffffffffffffffffffffffffffffffffffff1673ffffffffffffffffffffffffffffffffffffffff1614612c9b576040517f08c379a00000000000000000000000000000000000000000000000000000000081526004018080602001828103825260208152602001807f4f776e61626c653a2063616c6c6572206973206e6f7420746865206f776e657281525060200191505060405180910390fd5b600073ffffffffffffffffffffffffffffffffffffffff168173ffffffffffffffffffffffffffffffffffffffff161415612d21576040517f08c379a00000000000000000000000000000000000000000000000000000000081526004018080602001828103825260268152602001806137cb6026913960400191505060405180910390fd5b8073ffffffffffffffffffffffffffffffffffffffff1660008054906101000a900473ffffffffffffffffffffffffffffffffffffffff1673ffffffffffffffffffffffffffffffffffffffff167f8be0079c531659141344cd1fd0a4f28419497f9722a3daafe3b4186f6b6457e060405160405180910390a3806000806101000a81548173ffffffffffffffffffffffffffffffffffffffff021916908373ffffffffffffffffffffffffffffffffffffffff16021790555050565b60075481565b600033905090565b600080831415612dff5760009050612e6c565b6000828402905082848281612e1057fe5b0414612e67576040517f08c379a00000000000000000000000000000000000000000000000000000000081526004018080602001828103825260218152602001806138126021913960400191505060405180910390fd5b809150505b92915050565b6000612eb483836040518060400160405280601a81526020017f536166654d6174683a206469766973696f6e206279207a65726f0000000000008152506135a0565b905092915050565b600080828401905083811015612f3a576040517f08c379a000000000000000000000000000000000000000000000000000000000815260040180806020018281038252601b8152602001807f536166654d6174683a206164646974696f6e206f766572666c6f77000000000081525060200191505060405180910390fd5b8091505092915050565b6000612f8683836040518060400160405280601e81526020017f536166654d6174683a207375627472616374696f6e206f766572666c6f770000815250613666565b905092915050565b6000600f60003373ffffffffffffffffffffffffffffffffffffffff1673ffffffffffffffffffffffffffffffffffffffff16815260200190815260200160002060006101000a81548160ff021916908315150217905550600080612ff283613726565b9150915081156130d257600a6001600a80549050038154811061301157fe5b9060005260206000200160009054906101000a900473ffffffffffffffffffffffffffffffffffffffff16600a828154811061304957fe5b9060005260206000200160006101000a81548173ffffffffffffffffffffffffffffffffffffffff021916908373ffffffffffffffffffffffffffffffffffffffff160217905550600a80548061309c57fe5b6001900381819060005260206000200160006101000a81549073ffffffffffffffffffffffffffffffffffffffff021916905590555b505050565b600080600160009054906101000a900473ffffffffffffffffffffffffffffffffffffffff1673ffffffffffffffffffffffffffffffffffffffff166370a08231306040518263ffffffff1660e01b8152600401808273ffffffffffffffffffffffffffffffffffffffff16815260200191505060206040518083038186803b15801561316357600080fd5b505afa158015613177573d6000803e3d6000fd5b505050506040513d602081101561318d57600080fd5b810190808051906020019092919050505011613211576040517f08c379a000000000000000000000000000000000000000000000000000000000815260040180806020018281038252600a8152602001807f456d70747920706f6f6c0000000000000000000000000000000000000000000081525060200191505060405180910390fd5b60006132f5600b60008573ffffffffffffffffffffffffffffffffffffffff1673ffffffffffffffffffffffffffffffffffffffff168152602001908152602001600020546132e7600c60008773ffffffffffffffffffffffffffffffffffffffff1673ffffffffffffffffffffffffffffffffffffffff16815260200190815260200160002054600e60008873ffffffffffffffffffffffffffffffffffffffff1673ffffffffffffffffffffffffffffffffffffffff16815260200190815260200160002054612ebc90919063ffffffff16565b612ebc90919063ffffffff16565b905061332f6064613321600560009054906101000a900460ff1660ff1684612dec90919063ffffffff16565b612e7290919063ffffffff16565b915050919050565b80600160009054906101000a900473ffffffffffffffffffffffffffffffffffffffff1673ffffffffffffffffffffffffffffffffffffffff166370a08231336040518263ffffffff1660e01b8152600401808273ffffffffffffffffffffffffffffffffffffffff16815260200191505060206040518083038186803b1580156133c157600080fd5b505afa1580156133d5573d6000803e3d6000fd5b505050506040513d60208110156133eb57600080fd5b81019080805190602001909291905050501015613453576040517f08c379a000000000000000000000000000000000000000000000000000000000815260040180806020018281038252602981526020018061386a6029913960400191505060405180910390fd5b600160009054906101000a900473ffffffffffffffffffffffffffffffffffffffff1673ffffffffffffffffffffffffffffffffffffffff166323b872dd3330846040518463ffffffff1660e01b8152600401808473ffffffffffffffffffffffffffffffffffffffff1681526020018373ffffffffffffffffffffffffffffffffffffffff1681526020018281526020019350505050602060405180830381600087803b15801561350457600080fd5b505af1158015613518573d6000803e3d6000fd5b505050506040513d602081101561352e57600080fd5b8101908080519060200190929190505050507f4988b6b5c28044f2eb6386f504468e02344c07872faa4440e79284d63aba0bee338242604051808473ffffffffffffffffffffffffffffffffffffffff168152602001838152602001828152602001935050505060405180910390a150565b6000808311829061364c576040517f08c379a00000000000000000000000000000000000000000000000000000000081526004018080602001828103825283818151815260200191508051906020019080838360005b838110156136115780820151818401526020810190506135f6565b50505050905090810190601f16801561363e5780820380516001836020036101000a031916815260200191505b509250505060405180910390fd5b50600083858161365857fe5b049050809150509392505050565b6000838311158290613713576040517f08c379a00000000000000000000000000000000000000000000000000000000081526004018080602001828103825283818151815260200191508051906020019080838360005b838110156136d85780820151818401526020810190506136bd565b50505050905090810190601f1680156137055780820380516001836020036101000a031916815260200191505b509250505060405180910390fd5b5060008385039050809150509392505050565b60008060005b600a805490508110156137bc57600a818154811061374657fe5b9060005260206000200160009054906101000a900473ffffffffffffffffffffffffffffffffffffffff1673ffffffffffffffffffffffffffffffffffffffff168473ffffffffffffffffffffffffffffffffffffffff1614156137b15760018192509250506137c5565b60018101905061372c565b50600080915091505b91509156fe4f776e61626c653a206e6577206f776e657220697320746865207a65726f20616464726573734d757374206861766520656e6f7567682062616c616e636520746f207374616b65536166654d6174683a206d756c7469706c69636174696f6e206f766572666c6f774d7573742073656e64206174206c6561737420656e6f756768204c45414420746f2070617920726567697374726174696f6e206665652e496e73756666696369656e74204c4541442062616c616e636520696e206f776e65722077616c6c65745374616b65206661696c65642064756520746f206661696c656420616d6f756e74207472616e736665722e416d6f756e742069732062656c6f77206d696e696d756d207374616b652076616c75652ea2646970667358221220086a454b31e00b95704e00c96467eb13e5afa9e28d17fda302628ce704ffc27664736f6c634300060c0033",
  "source": "//\"SPDX-License-Identifier: UNLICENSED\"\r\n\r\npragma solidity ^0.6.0;\r\n\r\nimport '@openzeppelin/contracts/math/SafeMath.sol';\r\n\r\nimport '@openzeppelin/contracts/token/ERC20/IERC20.sol';\r\n\r\nimport '@openzeppelin/contracts/access/Ownable.sol';\r\n\r\ncontract LeadStake is Ownable {\r\n    //initializing safe computations\r\n    using SafeMath for uint;\r\n    \r\n    //LEAD contract address\r\n    address public lead;\r\n    \r\n    //total amount of staked lead\r\n    uint public totalStaked;\r\n    \r\n    //tax rate for staking in percentage\r\n    uint public stakingTaxRate;\r\n    \r\n    //tax for registration\r\n    uint public registrationTax;\r\n    \r\n    //monthly return of investment in percentage\r\n    uint8 public monthlyROI;\r\n    \r\n    //total amount of LEAD distributed\r\n    uint public totalDistributed;\r\n    \r\n    //tax rate for unstaking in percentage\r\n    uint public unstakingTaxRate;\r\n    \r\n    //minimum stakeable LEAD \r\n    uint public minimumStakeValue;\r\n    \r\n    //referral allocation from the registration tax\r\n    uint public referralTaxAllocation;\r\n    \r\n    //array of stakeholders' addresses\r\n    address[] public stakeholders;\r\n    \r\n    //mapping of stakeholders' address to number of stakes\r\n    mapping(address => uint) public stakes;\r\n    \r\n    //mapping of stakeholders' address to stake rewards\r\n    mapping(address => uint) public stakeRewards;\r\n    \r\n    //mapping of stakeholders address to number of referrals \r\n    mapping(address => uint) public referralCount;\r\n    \r\n    //mapping of stakeholders address to referral rewards earned \r\n    mapping(address => uint) public referralRewards;\r\n    \r\n    //mapping of addresses to verify registered stakers\r\n    mapping(address => bool) public registered;\r\n    \r\n    //Events\r\n    event OnDistribute(address sender, uint time);\r\n    event OnWithdrawal(address sender, uint amount);\r\n    event OnStake(address sender, uint amount, uint tax);\r\n    event OnUnstake(address sender, uint amount, uint tax);\r\n    event OnDeposit(address sender, uint amount, uint time);\r\n    event OnRegisterAndStake(address stakeholder, uint amount, uint totalTax , address _referrer);\r\n    \r\n    /**\r\n     * @dev Sets the initial values for lead, stakingTaxRate, unstakingTaxRate, referralTaxAllocation,\r\n     * and minimumStakeValue.\r\n     */\r\n    constructor(\r\n        address _token,\r\n        uint8 _stakingTaxRate, \r\n        uint8 _unstakingTaxRate,\r\n        uint8 _monthlyROI,\r\n        uint _registrationTax,\r\n        uint _referralTaxAllocation,\r\n        uint _minimumStakeValue) public {\r\n            \r\n        lead = _token;\r\n        \r\n        stakingTaxRate = _stakingTaxRate;\r\n        \r\n        unstakingTaxRate = _unstakingTaxRate;\r\n        \r\n        monthlyROI = _monthlyROI;\r\n        \r\n        registrationTax = _registrationTax;\r\n        \r\n        referralTaxAllocation = _referralTaxAllocation;\r\n        \r\n        minimumStakeValue = _minimumStakeValue;\r\n    }\r\n    \r\n    //exclusive access for registered address\r\n    modifier onlyRegistered() {\r\n        \r\n        require(registered[msg.sender] == true, \"Staker must be registered\");\r\n        \r\n        _;\r\n    }\r\n    \r\n    //exclusive access for unregistered address\r\n    modifier onlyUnregistered() {\r\n        \r\n        require(registered[msg.sender] == false, \"Staker is already registered\");\r\n        _;\r\n    }\r\n    \r\n    /**\r\n     * registers and creates stakes for new stakeholders\r\n     * \r\n     * deducts the registration tax and staking tax\r\n     * \r\n     * calculates refferal bonus from the registration tax and sends it to the _referrer if there is one\r\n     * \r\n     * transfers LEAD from sender's address into the smart contract\r\n     *\r\n     * Emits an {OnRegisterAndStake} event..\r\n     */\r\n    function registerAndStake(uint _amount, address _referrer) external onlyUnregistered {\r\n        \r\n        require(msg.sender != _referrer, \"Cannot refer self\");\r\n        \r\n        require(IERC20(lead).balanceOf(msg.sender) >= _amount, \"Must have enough balance to stake\");\r\n        \r\n        require(IERC20(lead).transferFrom(msg.sender, address(this), _amount), \"Stake failed due to failed amount transfer.\");\r\n        \r\n        require(_amount >= registrationTax.add(minimumStakeValue), \"Must send at least enough LEAD to pay registration fee.\");\r\n        \r\n        uint referralBonus = (registrationTax.mul(referralTaxAllocation)).div(100);\r\n        \r\n        uint finalAmount = _amount.sub(registrationTax);\r\n        \r\n        uint stakingTax = (stakingTaxRate.mul(finalAmount)).div(100);\r\n        \r\n        if(_referrer != address(0x0)) {\r\n            \r\n            referralCount[_referrer]++;\r\n            \r\n            referralRewards[_referrer] = referralRewards[_referrer].add(referralBonus);\r\n            \r\n        } \r\n        \r\n        stakes[msg.sender] = stakes[msg.sender].add(finalAmount).sub(stakingTax);\r\n        \r\n        totalStaked = totalStaked.add(finalAmount).sub(stakingTax);\r\n        \r\n        registered[msg.sender] = true;\r\n        \r\n        stakeholders.push(msg.sender);\r\n        \r\n        emit OnRegisterAndStake(msg.sender, _amount, registrationTax.add(stakingTax), _referrer);\r\n    }\r\n    \r\n    /**\r\n     * creates stakes for already registered stakeholders\r\n     * \r\n     * deducts the staking tax from _amount inputted\r\n     * \r\n     * registers the remainder in the stakes of the sender\r\n     *\r\n     * Emits an {OnStake} event\r\n     */\r\n    function stake(uint _amount) external onlyRegistered {\r\n        \r\n        require(_amount >= minimumStakeValue, \"Amount is below minimum stake value.\");\r\n        \r\n        require(IERC20(lead).balanceOf(msg.sender) >= _amount, \"Must have enough balance to stake\");\r\n        \r\n        require(IERC20(lead).transferFrom(msg.sender, address(this), _amount), \"Stake failed due to failed amount transfer.\");\r\n        \r\n        uint stakingTax = (stakingTaxRate.mul(_amount)).div(100);\r\n        \r\n        totalStaked = totalStaked.add(_amount).sub(stakingTax);\r\n        \r\n        stakes[msg.sender] = stakes[msg.sender].add(_amount).sub(stakingTax);\r\n        \r\n        emit OnStake(msg.sender, _amount, stakingTax);\r\n    }\r\n\r\n    /**\r\n     * removes '_amount' stakes for already registered stakeholders\r\n     * \r\n     * deducts the unstaking tax from '_amount'\r\n     * \r\n     * transfers the sum of the remainder, stake rewards and referral rewards to the sender \r\n     * \r\n     * deregisters stakeholder if all the stakes are removed\r\n     *\r\n     * Emits an {OnStake} event\r\n     */\r\n    function unstake(uint _amount) external onlyRegistered {\r\n        \r\n        require(_amount <= stakes[msg.sender], 'Insufficient balance to unstake');\r\n        \r\n        uint unstakingTax = (unstakingTaxRate.mul(_amount)).div(100);\r\n        \r\n        stakeRewards[msg.sender] = stakeRewards[msg.sender].add(referralRewards[msg.sender]).add(_amount).sub(unstakingTax);\r\n        \r\n        IERC20(lead).transfer(msg.sender, stakeRewards[msg.sender]);\r\n        \r\n        stakes[msg.sender] = stakes[msg.sender].sub(_amount);\r\n        \r\n        referralRewards[msg.sender] = 0;\r\n    \r\n        referralCount[msg.sender] = 0;\r\n        \r\n        totalStaked = totalStaked.sub(_amount);\r\n        \r\n        if(stakes[msg.sender] == 0) {\r\n            \r\n            _removeStakeholder(msg.sender);\r\n        }\r\n        \r\n        emit OnUnstake(msg.sender, _amount, unstakingTax);\r\n    }\r\n    \r\n    /**\r\n     * deregisters _stakeholder and removes address from stakeholders array\r\n     */\r\n    function _removeStakeholder(address _stakeholder) internal {\r\n        \r\n        registered[msg.sender] = false;\r\n        \r\n        (bool isStakeholder, uint i) = _isStakeholder(_stakeholder);\r\n        \r\n        if(isStakeholder){\r\n            \r\n            stakeholders[i] = stakeholders[stakeholders.length - 1];\r\n            \r\n            stakeholders.pop();\r\n        }\r\n    }\r\n    \r\n     /**\r\n     * checks if _address is a registered stakeholder\r\n     * \r\n     * returns 'true' and 'id number' if stakeholder and 'false' and '0'  if not\r\n     */\r\n    function _isStakeholder(address _address) internal view returns(bool, uint) {\r\n        \r\n        for (uint i = 0; i < stakeholders.length; i += 1){\r\n            \r\n            if (_address == stakeholders[i]) {\r\n                \r\n                return (true, i);\r\n            }\r\n        }\r\n        \r\n        return (false, 0);\r\n    }\r\n    \r\n     /**\r\n     * @dev Should be callsed once on a monthly basis\r\n     * distributes tokens to the stakeholders' rewards ready for withdrawal\r\n     */\r\n    function distribute() external onlyOwner() {\r\n        \r\n        uint totalClaimable;\r\n        \r\n        for(uint i = 0; i < stakeholders.length; i++){\r\n            \r\n            uint reward = _calculatePayment(stakeholders[i]);\r\n            \r\n            stakeRewards[stakeholders[i]] = stakeRewards[stakeholders[i]].add(reward);\r\n            \r\n            totalClaimable = totalClaimable.add(stakes[stakeholders[i]]).add(stakeRewards[stakeholders[i]]).add(referralRewards[stakeholders[i]]);\r\n        }\r\n        \r\n        if (totalClaimable > IERC20(lead).balanceOf(address(this))) _deposit(totalClaimable.sub(IERC20(lead).balanceOf(address(this))));\r\n       \r\n        emit OnDistribute(msg.sender, now);\r\n    }\r\n\r\n    \r\n    function _calculatePayment(address _stakeholder) internal view returns(uint reward){\r\n        \r\n        require(IERC20(lead).balanceOf(address(this)) > 0, 'Empty pool');\r\n        \r\n        uint totalReward = referralRewards[_stakeholder].add(stakeRewards[_stakeholder]).add(stakes[_stakeholder]);\r\n        \r\n        return (totalReward.mul(monthlyROI)).div(100);                                                       //monthly earning\r\n    }\r\n    \r\n    \r\n    function _deposit(uint _amount) internal {\r\n        \r\n        require(IERC20(lead).balanceOf(msg.sender) >= _amount, 'Insufficient LEAD balance in owner wallet');                //owner must have enough LEAD in wallet\r\n        \r\n        IERC20(lead).transferFrom(msg.sender, address(this), _amount);\r\n       \r\n        emit OnDeposit(msg.sender, _amount, now);\r\n    }\r\n    \r\n    \r\n    function withdrawEarnings() public onlyRegistered returns(bool success) {\r\n        \r\n        require(stakeRewards[msg.sender] > 0 || referralRewards[msg.sender] > 0, 'No reward to withdraw'); \r\n        \r\n        uint totalReward = referralRewards[msg.sender].add(stakeRewards[msg.sender]);\r\n        \r\n        IERC20(lead).transfer(msg.sender, totalReward);\r\n        \r\n        stakeRewards[msg.sender] = 0;\r\n        \r\n        referralRewards[msg.sender] = 0;\r\n        \r\n        referralCount[msg.sender] = 0;\r\n        \r\n        emit OnWithdrawal(msg.sender, totalReward);\r\n        \r\n        return true;\r\n    }\r\n    \r\n    function setStakingTaxRate(uint8 _stakingTaxRate) external onlyOwner {\r\n        stakingTaxRate = _stakingTaxRate;\r\n    }\r\n    \r\n    function setUnstakingTaxRate(uint8 _unstakingTaxRate) external onlyOwner {\r\n        unstakingTaxRate = _unstakingTaxRate;\r\n    }\r\n    \r\n    function setMonthlyROI(uint8 _monthlyROI) external onlyOwner {\r\n        monthlyROI = _monthlyROI;\r\n    }\r\n    \r\n    function setRegistrationTax(uint _registrationTax) external onlyOwner {\r\n        registrationTax = _registrationTax;\r\n    }\r\n    \r\n    function setReferralTaxAllocation(uint _referralTaxAllocation) external onlyOwner {\r\n        referralTaxAllocation = _referralTaxAllocation;\r\n    }\r\n    \r\n    function setMinimumStakeValue(uint _minimumStakeValue) external onlyOwner {\r\n        minimumStakeValue = _minimumStakeValue;\r\n    }\r\n\r\n}",
  "sourcePath": "C:\\Users\\LENOVO\\Desktop\\THE GRIND\\Blockchain Dev\\gitrepo\\LeadStake\\contracts\\LeadStake.sol",
  "compiler": {
    "name": "solc",
    "version": "0.6.12+commit.27d51765.Emscripten.clang"
  },
  "schemaVersion": "3.0.23",
  "updatedAt": "2020-09-12T19:00:33.437Z",
  "networkType": "ethereum",
  "devdoc": {
    "kind": "dev",
    "methods": {
      "constructor": {
        "details": "Sets the initial values for lead, stakingTaxRate, unstakingTaxRate, referralTaxAllocation, and minimumStakeValue."
      },
      "distribute()": {
        "details": "Should be callsed once on a monthly basis distributes tokens to the stakeholders' rewards ready for withdrawal"
      },
      "owner()": {
        "details": "Returns the address of the current owner."
      },
      "renounceOwnership()": {
        "details": "Leaves the contract without owner. It will not be possible to call `onlyOwner` functions anymore. Can only be called by the current owner. NOTE: Renouncing ownership will leave the contract without an owner, thereby removing any functionality that is only available to the owner."
      },
      "transferOwnership(address)": {
        "details": "Transfers ownership of the contract to a new account (`newOwner`). Can only be called by the current owner."
      }
    },
    "version": 1
  },
  "userdoc": {
    "kind": "user",
    "methods": {
      "registerAndStake(uint256,address)": {
        "notice": "registers and creates stakes for new stakeholders  deducts the registration tax and staking tax  calculates refferal bonus from the registration tax and sends it to the _referrer if there is one  transfers LEAD from sender's address into the smart contract Emits an {OnRegisterAndStake} event.."
      },
      "stake(uint256)": {
        "notice": "creates stakes for already registered stakeholders  deducts the staking tax from _amount inputted  registers the remainder in the stakes of the sender Emits an {OnStake} event"
      },
      "unstake(uint256)": {
        "notice": "removes '_amount' stakes for already registered stakeholders  deducts the unstaking tax from '_amount'  transfers the sum of the remainder, stake rewards and referral rewards to the sender   deregisters stakeholder if all the stakes are removed Emits an {OnStake} event"
      }
    },
    "version": 1
  }
}