{
  "contractName": "LeadStake",
  "abi": [
    {
      "inputs": [
        {
          "internalType": "address",
          "name": "_token",
          "type": "address"
        },
        {
          "internalType": "uint8",
          "name": "_stakingTaxRate",
          "type": "uint8"
        },
        {
          "internalType": "uint8",
          "name": "_unstakingTaxRate",
          "type": "uint8"
        },
        {
          "internalType": "uint8",
          "name": "_monthlyROI",
          "type": "uint8"
        },
        {
          "internalType": "uint256",
          "name": "_registrationTax",
          "type": "uint256"
        },
        {
          "internalType": "uint256",
          "name": "_referralTaxAllocation",
          "type": "uint256"
        },
        {
          "internalType": "uint256",
          "name": "_minimumStakeValue",
          "type": "uint256"
        }
      ],
      "stateMutability": "nonpayable",
      "type": "constructor"
    },
    {
      "anonymous": false,
      "inputs": [
        {
          "indexed": false,
          "internalType": "address",
          "name": "sender",
          "type": "address"
        },
        {
          "indexed": false,
          "internalType": "uint256",
          "name": "amount",
          "type": "uint256"
        },
        {
          "indexed": false,
          "internalType": "uint256",
          "name": "time",
          "type": "uint256"
        }
      ],
      "name": "OnDeposit",
      "type": "event"
    },
    {
      "anonymous": false,
      "inputs": [
        {
          "indexed": false,
          "internalType": "address",
          "name": "sender",
          "type": "address"
        },
        {
          "indexed": false,
          "internalType": "uint256",
          "name": "time",
          "type": "uint256"
        }
      ],
      "name": "OnDistribute",
      "type": "event"
    },
    {
      "anonymous": false,
      "inputs": [
        {
          "indexed": false,
          "internalType": "address",
          "name": "stakeholder",
          "type": "address"
        },
        {
          "indexed": false,
          "internalType": "uint256",
          "name": "amount",
          "type": "uint256"
        },
        {
          "indexed": false,
          "internalType": "uint256",
          "name": "totalTax",
          "type": "uint256"
        },
        {
          "indexed": false,
          "internalType": "address",
          "name": "_referrer",
          "type": "address"
        }
      ],
      "name": "OnRegisterAndStake",
      "type": "event"
    },
    {
      "anonymous": false,
      "inputs": [
        {
          "indexed": false,
          "internalType": "address",
          "name": "sender",
          "type": "address"
        },
        {
          "indexed": false,
          "internalType": "uint256",
          "name": "amount",
          "type": "uint256"
        },
        {
          "indexed": false,
          "internalType": "uint256",
          "name": "tax",
          "type": "uint256"
        }
      ],
      "name": "OnStake",
      "type": "event"
    },
    {
      "anonymous": false,
      "inputs": [
        {
          "indexed": false,
          "internalType": "address",
          "name": "sender",
          "type": "address"
        },
        {
          "indexed": false,
          "internalType": "uint256",
          "name": "amount",
          "type": "uint256"
        },
        {
          "indexed": false,
          "internalType": "uint256",
          "name": "tax",
          "type": "uint256"
        }
      ],
      "name": "OnUnstake",
      "type": "event"
    },
    {
      "anonymous": false,
      "inputs": [
        {
          "indexed": false,
          "internalType": "address",
          "name": "sender",
          "type": "address"
        },
        {
          "indexed": false,
          "internalType": "uint256",
          "name": "amount",
          "type": "uint256"
        }
      ],
      "name": "OnWithdrawal",
      "type": "event"
    },
    {
      "anonymous": false,
      "inputs": [
        {
          "indexed": true,
          "internalType": "address",
          "name": "previousOwner",
          "type": "address"
        },
        {
          "indexed": true,
          "internalType": "address",
          "name": "newOwner",
          "type": "address"
        }
      ],
      "name": "OwnershipTransferred",
      "type": "event"
    },
    {
      "inputs": [],
      "name": "lead",
      "outputs": [
        {
          "internalType": "address",
          "name": "",
          "type": "address"
        }
      ],
      "stateMutability": "view",
      "type": "function",
      "constant": true
    },
    {
      "inputs": [],
      "name": "minimumStakeValue",
      "outputs": [
        {
          "internalType": "uint256",
          "name": "",
          "type": "uint256"
        }
      ],
      "stateMutability": "view",
      "type": "function",
      "constant": true
    },
    {
      "inputs": [],
      "name": "monthlyROI",
      "outputs": [
        {
          "internalType": "uint8",
          "name": "",
          "type": "uint8"
        }
      ],
      "stateMutability": "view",
      "type": "function",
      "constant": true
    },
    {
      "inputs": [],
      "name": "owner",
      "outputs": [
        {
          "internalType": "address",
          "name": "",
          "type": "address"
        }
      ],
      "stateMutability": "view",
      "type": "function",
      "constant": true
    },
    {
      "inputs": [
        {
          "internalType": "address",
          "name": "",
          "type": "address"
        }
      ],
      "name": "referralCount",
      "outputs": [
        {
          "internalType": "uint256",
          "name": "",
          "type": "uint256"
        }
      ],
      "stateMutability": "view",
      "type": "function",
      "constant": true
    },
    {
      "inputs": [
        {
          "internalType": "address",
          "name": "",
          "type": "address"
        }
      ],
      "name": "referralRewards",
      "outputs": [
        {
          "internalType": "uint256",
          "name": "",
          "type": "uint256"
        }
      ],
      "stateMutability": "view",
      "type": "function",
      "constant": true
    },
    {
      "inputs": [],
      "name": "referralTaxAllocation",
      "outputs": [
        {
          "internalType": "uint256",
          "name": "",
          "type": "uint256"
        }
      ],
      "stateMutability": "view",
      "type": "function",
      "constant": true
    },
    {
      "inputs": [
        {
          "internalType": "address",
          "name": "",
          "type": "address"
        }
      ],
      "name": "registered",
      "outputs": [
        {
          "internalType": "bool",
          "name": "",
          "type": "bool"
        }
      ],
      "stateMutability": "view",
      "type": "function",
      "constant": true
    },
    {
      "inputs": [],
      "name": "registrationTax",
      "outputs": [
        {
          "internalType": "uint256",
          "name": "",
          "type": "uint256"
        }
      ],
      "stateMutability": "view",
      "type": "function",
      "constant": true
    },
    {
      "inputs": [],
      "name": "renounceOwnership",
      "outputs": [],
      "stateMutability": "nonpayable",
      "type": "function"
    },
    {
      "inputs": [
        {
          "internalType": "address",
          "name": "",
          "type": "address"
        }
      ],
      "name": "stakeRewards",
      "outputs": [
        {
          "internalType": "uint256",
          "name": "",
          "type": "uint256"
        }
      ],
      "stateMutability": "view",
      "type": "function",
      "constant": true
    },
    {
      "inputs": [
        {
          "internalType": "address",
          "name": "",
          "type": "address"
        }
      ],
      "name": "stakes",
      "outputs": [
        {
          "internalType": "uint256",
          "name": "",
          "type": "uint256"
        }
      ],
      "stateMutability": "view",
      "type": "function",
      "constant": true
    },
    {
      "inputs": [],
      "name": "stakingTaxRate",
      "outputs": [
        {
          "internalType": "uint256",
          "name": "",
          "type": "uint256"
        }
      ],
      "stateMutability": "view",
      "type": "function",
      "constant": true
    },
    {
      "inputs": [],
      "name": "totalDistributed",
      "outputs": [
        {
          "internalType": "uint256",
          "name": "",
          "type": "uint256"
        }
      ],
      "stateMutability": "view",
      "type": "function",
      "constant": true
    },
    {
      "inputs": [],
      "name": "totalStaked",
      "outputs": [
        {
          "internalType": "uint256",
          "name": "",
          "type": "uint256"
        }
      ],
      "stateMutability": "view",
      "type": "function",
      "constant": true
    },
    {
      "inputs": [
        {
          "internalType": "address",
          "name": "newOwner",
          "type": "address"
        }
      ],
      "name": "transferOwnership",
      "outputs": [],
      "stateMutability": "nonpayable",
      "type": "function"
    },
    {
      "inputs": [],
      "name": "unstakingTaxRate",
      "outputs": [
        {
          "internalType": "uint256",
          "name": "",
          "type": "uint256"
        }
      ],
      "stateMutability": "view",
      "type": "function",
      "constant": true
    },
    {
      "inputs": [
        {
          "internalType": "uint256",
          "name": "_amount",
          "type": "uint256"
        },
        {
          "internalType": "address",
          "name": "_referrer",
          "type": "address"
        }
      ],
      "name": "registerAndStake",
      "outputs": [],
      "stateMutability": "nonpayable",
      "type": "function"
    },
    {
      "inputs": [
        {
          "internalType": "uint256",
          "name": "_amount",
          "type": "uint256"
        }
      ],
      "name": "stake",
      "outputs": [],
      "stateMutability": "nonpayable",
      "type": "function"
    },
    {
      "inputs": [
        {
          "internalType": "uint256",
          "name": "_amount",
          "type": "uint256"
        }
      ],
      "name": "unstake",
      "outputs": [],
      "stateMutability": "nonpayable",
      "type": "function"
    },
    {
      "inputs": [],
      "name": "distribute",
      "outputs": [],
      "stateMutability": "nonpayable",
      "type": "function"
    },
    {
      "inputs": [],
      "name": "withdrawEarnings",
      "outputs": [
        {
          "internalType": "bool",
          "name": "success",
          "type": "bool"
        }
      ],
      "stateMutability": "nonpayable",
      "type": "function"
    },
    {
      "inputs": [
        {
          "internalType": "uint8",
          "name": "_stakingTaxRate",
          "type": "uint8"
        }
      ],
      "name": "setStakingTaxRate",
      "outputs": [],
      "stateMutability": "nonpayable",
      "type": "function"
    },
    {
      "inputs": [
        {
          "internalType": "uint8",
          "name": "_unstakingTaxRate",
          "type": "uint8"
        }
      ],
      "name": "setUnstakingTaxRate",
      "outputs": [],
      "stateMutability": "nonpayable",
      "type": "function"
    },
    {
      "inputs": [
        {
          "internalType": "uint8",
          "name": "_monthlyROI",
          "type": "uint8"
        }
      ],
      "name": "setMonthlyROI",
      "outputs": [],
      "stateMutability": "nonpayable",
      "type": "function"
    },
    {
      "inputs": [
        {
          "internalType": "uint256",
          "name": "_registrationTax",
          "type": "uint256"
        }
      ],
      "name": "setRegistrationTax",
      "outputs": [],
      "stateMutability": "nonpayable",
      "type": "function"
    },
    {
      "inputs": [
        {
          "internalType": "uint256",
          "name": "_referralTaxAllocation",
          "type": "uint256"
        }
      ],
      "name": "setReferralTaxAllocation",
      "outputs": [],
      "stateMutability": "nonpayable",
      "type": "function"
    },
    {
      "inputs": [
        {
          "internalType": "uint256",
          "name": "_minimumStakeValue",
          "type": "uint256"
        }
      ],
      "name": "setMinimumStakeValue",
      "outputs": [],
      "stateMutability": "nonpayable",
      "type": "function"
    }
  ],
  "bytecode": "0x60806040523480156200001157600080fd5b50604051620038eb380380620038eb833981810160405260e08110156200003757600080fd5b8101908080519060200190929190805190602001909291908051906020019092919080519060200190929190805190602001909291908051906020019092919080519060200190929190505050600062000096620001c660201b60201c565b9050806000806101000a81548173ffffffffffffffffffffffffffffffffffffffff021916908373ffffffffffffffffffffffffffffffffffffffff1602179055508073ffffffffffffffffffffffffffffffffffffffff16600073ffffffffffffffffffffffffffffffffffffffff167f8be0079c531659141344cd1fd0a4f28419497f9722a3daafe3b4186f6b6457e060405160405180910390a35086600160006101000a81548173ffffffffffffffffffffffffffffffffffffffff021916908373ffffffffffffffffffffffffffffffffffffffff1602179055508560ff166003819055508460ff1660078190555083600560006101000a81548160ff021916908360ff16021790555082600481905550816009819055508060088190555050505050505050620001ce565b600033905090565b61370d80620001de6000396000f3fe608060405234801561001057600080fd5b50600436106101c45760003560e01c8063a694fc3a116100f9578063db74559b11610097578063efca2eed11610071578063efca2eed1461064f578063f24ee7d31461066d578063f2fde38b146106bb578063fbfaa24d146106ff576101c4565b8063db74559b146105cf578063e4fc6b6d14610627578063efad16a814610631576101c4565b8063b73c6ce9116100d3578063b73c6ce9146104f5578063c428e11414610515578063ca9a1da91461056d578063cc62db5b1461059e576101c4565b8063a694fc3a1461043f578063b2dd5c071461046d578063b60dbb5b146104c7576101c4565b806346bb0a161161016657806370f0f3871161014057806370f0f387146103c5578063715018a6146103e3578063817b1cd2146103ed5780638da5cb5b1461040b576101c4565b806346bb0a161461030b5780634be4d7901461033f57806353aaa63b1461036d576101c4565b806318e1fbfc116101a257806318e1fbfc1461026d578063269e3e3a1461028b578063275bb89b146102bc5780632e17de78146102dd576101c4565b806306693604146101c95780630aca582e146101f757806316934fc414610215575b600080fd5b6101f5600480360360208110156101df57600080fd5b810190808035906020019092919050505061071d565b005b6101ff6107ef565b6040518082815260200191505060405180910390f35b6102576004803603602081101561022b57600080fd5b81019080803573ffffffffffffffffffffffffffffffffffffffff1690602001909291905050506107f5565b6040518082815260200191505060405180910390f35b61027561080d565b6040518082815260200191505060405180910390f35b6102ba600480360360208110156102a157600080fd5b81019080803560ff169060200190929190505050610813565b005b6102c46108e8565b604051808260ff16815260200191505060405180910390f35b610309600480360360208110156102f357600080fd5b81019080803590602001909291905050506108fb565b005b610313610e95565b604051808273ffffffffffffffffffffffffffffffffffffffff16815260200191505060405180910390f35b61036b6004803603602081101561035557600080fd5b8101908080359060200190929190505050610ebb565b005b6103af6004803603602081101561038357600080fd5b81019080803573ffffffffffffffffffffffffffffffffffffffff169060200190929190505050610f8d565b6040518082815260200191505060405180910390f35b6103cd610fa5565b6040518082815260200191505060405180910390f35b6103eb610fab565b005b6103f5611131565b6040518082815260200191505060405180910390f35b610413611137565b604051808273ffffffffffffffffffffffffffffffffffffffff16815260200191505060405180910390f35b61046b6004803603602081101561045557600080fd5b8101908080359060200190929190505050611160565b005b6104af6004803603602081101561048357600080fd5b81019080803573ffffffffffffffffffffffffffffffffffffffff16906020019092919050505061163f565b60405180821515815260200191505060405180910390f35b6104f3600480360360208110156104dd57600080fd5b810190808035906020019092919050505061165f565b005b6104fd611731565b60405180821515815260200191505060405180910390f35b6105576004803603602081101561052b57600080fd5b81019080803573ffffffffffffffffffffffffffffffffffffffff169060200190929190505050611b88565b6040518082815260200191505060405180910390f35b61059c6004803603602081101561058357600080fd5b81019080803560ff169060200190929190505050611ba0565b005b6105cd600480360360208110156105b457600080fd5b81019080803560ff169060200190929190505050611c86565b005b610611600480360360208110156105e557600080fd5b81019080803573ffffffffffffffffffffffffffffffffffffffff169060200190929190505050611d5b565b6040518082815260200191505060405180910390f35b61062f611d73565b005b610639612277565b6040518082815260200191505060405180910390f35b61065761227d565b6040518082815260200191505060405180910390f35b6106b96004803603604081101561068357600080fd5b8101908080359060200190929190803573ffffffffffffffffffffffffffffffffffffffff169060200190929190505050612283565b005b6106fd600480360360208110156106d157600080fd5b81019080803573ffffffffffffffffffffffffffffffffffffffff169060200190929190505050612a26565b005b610707612c31565b6040518082815260200191505060405180910390f35b610725612c37565b73ffffffffffffffffffffffffffffffffffffffff1660008054906101000a900473ffffffffffffffffffffffffffffffffffffffff1673ffffffffffffffffffffffffffffffffffffffff16146107e5576040517f08c379a00000000000000000000000000000000000000000000000000000000081526004018080602001828103825260208152602001807f4f776e61626c653a2063616c6c6572206973206e6f7420746865206f776e657281525060200191505060405180910390fd5b8060048190555050565b60045481565b600b6020528060005260406000206000915090505481565b60085481565b61081b612c37565b73ffffffffffffffffffffffffffffffffffffffff1660008054906101000a900473ffffffffffffffffffffffffffffffffffffffff1673ffffffffffffffffffffffffffffffffffffffff16146108db576040517f08c379a00000000000000000000000000000000000000000000000000000000081526004018080602001828103825260208152602001807f4f776e61626c653a2063616c6c6572206973206e6f7420746865206f776e657281525060200191505060405180910390fd5b8060ff1660038190555050565b600560009054906101000a900460ff1681565b60011515600f60003373ffffffffffffffffffffffffffffffffffffffff1673ffffffffffffffffffffffffffffffffffffffff16815260200190815260200160002060009054906101000a900460ff161515146109c1576040517f08c379a00000000000000000000000000000000000000000000000000000000081526004018080602001828103825260198152602001807f5374616b6572206d75737420626520726567697374657265640000000000000081525060200191505060405180910390fd5b600b60003373ffffffffffffffffffffffffffffffffffffffff1673ffffffffffffffffffffffffffffffffffffffff16815260200190815260200160002054811015610a76576040517f08c379a00000000000000000000000000000000000000000000000000000000081526004018080602001828103825260208152602001807f496e73756666696369656e742062616c616e636520746f20776974686472617781525060200191505060405180910390fd5b6000610aa082610a926064600754612c3f90919063ffffffff16565b612c8990919063ffffffff16565b9050610b57610b09610abb8385612d0f90919063ffffffff16565b600e60003373ffffffffffffffffffffffffffffffffffffffff1673ffffffffffffffffffffffffffffffffffffffff16815260200190815260200160002054612d5990919063ffffffff16565b600c60003373ffffffffffffffffffffffffffffffffffffffff1673ffffffffffffffffffffffffffffffffffffffff16815260200190815260200160002054612d5990919063ffffffff16565b600c60003373ffffffffffffffffffffffffffffffffffffffff1673ffffffffffffffffffffffffffffffffffffffff16815260200190815260200160002081905550600160009054906101000a900473ffffffffffffffffffffffffffffffffffffffff1673ffffffffffffffffffffffffffffffffffffffff1663a9059cbb33600c60003373ffffffffffffffffffffffffffffffffffffffff1673ffffffffffffffffffffffffffffffffffffffff168152602001908152602001600020546040518363ffffffff1660e01b8152600401808373ffffffffffffffffffffffffffffffffffffffff16815260200182815260200192505050602060405180830381600087803b158015610c6c57600080fd5b505af1158015610c80573d6000803e3d6000fd5b505050506040513d6020811015610c9657600080fd5b810190808051906020019092919050505050610cfa82600b60003373ffffffffffffffffffffffffffffffffffffffff1673ffffffffffffffffffffffffffffffffffffffff16815260200190815260200160002054612d0f90919063ffffffff16565b600b60003373ffffffffffffffffffffffffffffffffffffffff1673ffffffffffffffffffffffffffffffffffffffff168152602001908152602001600020819055506000600e60003373ffffffffffffffffffffffffffffffffffffffff1673ffffffffffffffffffffffffffffffffffffffff168152602001908152602001600020819055506000600d60003373ffffffffffffffffffffffffffffffffffffffff1673ffffffffffffffffffffffffffffffffffffffff16815260200190815260200160002081905550610ddc82600254612d0f90919063ffffffff16565b6002819055506000600b60003373ffffffffffffffffffffffffffffffffffffffff1673ffffffffffffffffffffffffffffffffffffffff168152602001908152602001600020541415610e3457610e3333612de1565b5b7fefe5e683dfe58f596b38874c815bc9599676515f5e641a3305c40aba31c822a7338383604051808473ffffffffffffffffffffffffffffffffffffffff168152602001838152602001828152602001935050505060405180910390a15050565b600160009054906101000a900473ffffffffffffffffffffffffffffffffffffffff1681565b610ec3612c37565b73ffffffffffffffffffffffffffffffffffffffff1660008054906101000a900473ffffffffffffffffffffffffffffffffffffffff1673ffffffffffffffffffffffffffffffffffffffff1614610f83576040517f08c379a00000000000000000000000000000000000000000000000000000000081526004018080602001828103825260208152602001807f4f776e61626c653a2063616c6c6572206973206e6f7420746865206f776e657281525060200191505060405180910390fd5b8060088190555050565b600e6020528060005260406000206000915090505481565b60035481565b610fb3612c37565b73ffffffffffffffffffffffffffffffffffffffff1660008054906101000a900473ffffffffffffffffffffffffffffffffffffffff1673ffffffffffffffffffffffffffffffffffffffff1614611073576040517f08c379a00000000000000000000000000000000000000000000000000000000081526004018080602001828103825260208152602001807f4f776e61626c653a2063616c6c6572206973206e6f7420746865206f776e657281525060200191505060405180910390fd5b600073ffffffffffffffffffffffffffffffffffffffff1660008054906101000a900473ffffffffffffffffffffffffffffffffffffffff1673ffffffffffffffffffffffffffffffffffffffff167f8be0079c531659141344cd1fd0a4f28419497f9722a3daafe3b4186f6b6457e060405160405180910390a360008060006101000a81548173ffffffffffffffffffffffffffffffffffffffff021916908373ffffffffffffffffffffffffffffffffffffffff160217905550565b60025481565b60008060009054906101000a900473ffffffffffffffffffffffffffffffffffffffff16905090565b60011515600f60003373ffffffffffffffffffffffffffffffffffffffff1673ffffffffffffffffffffffffffffffffffffffff16815260200190815260200160002060009054906101000a900460ff16151514611226576040517f08c379a00000000000000000000000000000000000000000000000000000000081526004018080602001828103825260198152602001807f5374616b6572206d75737420626520726567697374657265640000000000000081525060200191505060405180910390fd5b600854811015611281576040517f08c379a00000000000000000000000000000000000000000000000000000000081526004018080602001828103825260248152602001806136b46024913960400191505060405180910390fd5b80600160009054906101000a900473ffffffffffffffffffffffffffffffffffffffff1673ffffffffffffffffffffffffffffffffffffffff166370a08231336040518263ffffffff1660e01b8152600401808273ffffffffffffffffffffffffffffffffffffffff16815260200191505060206040518083038186803b15801561130b57600080fd5b505afa15801561131f573d6000803e3d6000fd5b505050506040513d602081101561133557600080fd5b8101908080519060200190929190505050101561139d576040517f08c379a00000000000000000000000000000000000000000000000000000000081526004018080602001828103825260218152602001806136106021913960400191505060405180910390fd5b600160009054906101000a900473ffffffffffffffffffffffffffffffffffffffff1673ffffffffffffffffffffffffffffffffffffffff166323b872dd3330846040518463ffffffff1660e01b8152600401808473ffffffffffffffffffffffffffffffffffffffff1681526020018373ffffffffffffffffffffffffffffffffffffffff1681526020018281526020019350505050602060405180830381600087803b15801561144e57600080fd5b505af1158015611462573d6000803e3d6000fd5b505050506040513d602081101561147857600080fd5b81019080805190602001909291905050506114de576040517f08c379a000000000000000000000000000000000000000000000000000000000815260040180806020018281038252602b815260200180613689602b913960400191505060405180910390fd5b6000611508826114fa6064600354612c3f90919063ffffffff16565b612c8990919063ffffffff16565b90506115316115208284612d0f90919063ffffffff16565b600254612d5990919063ffffffff16565b60028190555061159b61154d8284612d0f90919063ffffffff16565b600b60003373ffffffffffffffffffffffffffffffffffffffff1673ffffffffffffffffffffffffffffffffffffffff16815260200190815260200160002054612d5990919063ffffffff16565b600b60003373ffffffffffffffffffffffffffffffffffffffff1673ffffffffffffffffffffffffffffffffffffffff168152602001908152602001600020819055507ffeb41de252fbc1de97d95a27ed44f6044e66e11df6ca319955eef830b598fdb4338383604051808473ffffffffffffffffffffffffffffffffffffffff168152602001838152602001828152602001935050505060405180910390a15050565b600f6020528060005260406000206000915054906101000a900460ff1681565b611667612c37565b73ffffffffffffffffffffffffffffffffffffffff1660008054906101000a900473ffffffffffffffffffffffffffffffffffffffff1673ffffffffffffffffffffffffffffffffffffffff1614611727576040517f08c379a00000000000000000000000000000000000000000000000000000000081526004018080602001828103825260208152602001807f4f776e61626c653a2063616c6c6572206973206e6f7420746865206f776e657281525060200191505060405180910390fd5b8060098190555050565b600060011515600f60003373ffffffffffffffffffffffffffffffffffffffff1673ffffffffffffffffffffffffffffffffffffffff16815260200190815260200160002060009054906101000a900460ff161515146117f9576040517f08c379a00000000000000000000000000000000000000000000000000000000081526004018080602001828103825260198152602001807f5374616b6572206d75737420626520726567697374657265640000000000000081525060200191505060405180910390fd5b6000600c60003373ffffffffffffffffffffffffffffffffffffffff1673ffffffffffffffffffffffffffffffffffffffff16815260200190815260200160002054118061188657506000600e60003373ffffffffffffffffffffffffffffffffffffffff1673ffffffffffffffffffffffffffffffffffffffff16815260200190815260200160002054115b6118f8576040517f08c379a00000000000000000000000000000000000000000000000000000000081526004018080602001828103825260168152602001807f4e6f2062616c616e636520746f2077697468647261770000000000000000000081525060200191505060405180910390fd5b600061198b600c60003373ffffffffffffffffffffffffffffffffffffffff1673ffffffffffffffffffffffffffffffffffffffff16815260200190815260200160002054600e60003373ffffffffffffffffffffffffffffffffffffffff1673ffffffffffffffffffffffffffffffffffffffff16815260200190815260200160002054612d5990919063ffffffff16565b9050600160009054906101000a900473ffffffffffffffffffffffffffffffffffffffff1673ffffffffffffffffffffffffffffffffffffffff1663a9059cbb33836040518363ffffffff1660e01b8152600401808373ffffffffffffffffffffffffffffffffffffffff16815260200182815260200192505050602060405180830381600087803b158015611a2057600080fd5b505af1158015611a34573d6000803e3d6000fd5b505050506040513d6020811015611a4a57600080fd5b8101908080519060200190929190505050506000600c60003373ffffffffffffffffffffffffffffffffffffffff1673ffffffffffffffffffffffffffffffffffffffff168152602001908152602001600020819055506000600e60003373ffffffffffffffffffffffffffffffffffffffff1673ffffffffffffffffffffffffffffffffffffffff168152602001908152602001600020819055506000600d60003373ffffffffffffffffffffffffffffffffffffffff1673ffffffffffffffffffffffffffffffffffffffff168152602001908152602001600020819055507fefbfe3c015941f3419cd0c7f713fd74c6874d0da2d765adc7f700370ccd5ba5c3382604051808373ffffffffffffffffffffffffffffffffffffffff1681526020018281526020019250505060405180910390a1600191505090565b600c6020528060005260406000206000915090505481565b611ba8612c37565b73ffffffffffffffffffffffffffffffffffffffff1660008054906101000a900473ffffffffffffffffffffffffffffffffffffffff1673ffffffffffffffffffffffffffffffffffffffff1614611c68576040517f08c379a00000000000000000000000000000000000000000000000000000000081526004018080602001828103825260208152602001807f4f776e61626c653a2063616c6c6572206973206e6f7420746865206f776e657281525060200191505060405180910390fd5b80600560006101000a81548160ff021916908360ff16021790555050565b611c8e612c37565b73ffffffffffffffffffffffffffffffffffffffff1660008054906101000a900473ffffffffffffffffffffffffffffffffffffffff1673ffffffffffffffffffffffffffffffffffffffff1614611d4e576040517f08c379a00000000000000000000000000000000000000000000000000000000081526004018080602001828103825260208152602001807f4f776e61626c653a2063616c6c6572206973206e6f7420746865206f776e657281525060200191505060405180910390fd5b8060ff1660078190555050565b600d6020528060005260406000206000915090505481565b611d7b612c37565b73ffffffffffffffffffffffffffffffffffffffff1660008054906101000a900473ffffffffffffffffffffffffffffffffffffffff1673ffffffffffffffffffffffffffffffffffffffff1614611e3b576040517f08c379a00000000000000000000000000000000000000000000000000000000081526004018080602001828103825260208152602001807f4f776e61626c653a2063616c6c6572206973206e6f7420746865206f776e657281525060200191505060405180910390fd5b600080600090505b600a80549050811015612140576000611e92600a8381548110611e6257fe5b9060005260206000200160009054906101000a900473ffffffffffffffffffffffffffffffffffffffff16612f2a565b9050611f1d81600c6000600a8681548110611ea957fe5b9060005260206000200160009054906101000a900473ffffffffffffffffffffffffffffffffffffffff1673ffffffffffffffffffffffffffffffffffffffff1673ffffffffffffffffffffffffffffffffffffffff16815260200190815260200160002054612d5990919063ffffffff16565b600c6000600a8581548110611f2e57fe5b9060005260206000200160009054906101000a900473ffffffffffffffffffffffffffffffffffffffff1673ffffffffffffffffffffffffffffffffffffffff1673ffffffffffffffffffffffffffffffffffffffff1681526020019081526020016000208190555061213061212161209c600e6000600a8781548110611fb157fe5b9060005260206000200160009054906101000a900473ffffffffffffffffffffffffffffffffffffffff1673ffffffffffffffffffffffffffffffffffffffff1673ffffffffffffffffffffffffffffffffffffffff16815260200190815260200160002054600c6000600a888154811061202857fe5b9060005260206000200160009054906101000a900473ffffffffffffffffffffffffffffffffffffffff1673ffffffffffffffffffffffffffffffffffffffff1673ffffffffffffffffffffffffffffffffffffffff16815260200190815260200160002054612d5990919063ffffffff16565b600b6000600a87815481106120ad57fe5b9060005260206000200160009054906101000a900473ffffffffffffffffffffffffffffffffffffffff1673ffffffffffffffffffffffffffffffffffffffff1673ffffffffffffffffffffffffffffffffffffffff16815260200190815260200160002054612d5990919063ffffffff16565b84612d5990919063ffffffff16565b9250508080600101915050611e43565b5061221f61221a600160009054906101000a900473ffffffffffffffffffffffffffffffffffffffff1673ffffffffffffffffffffffffffffffffffffffff166370a08231306040518263ffffffff1660e01b8152600401808273ffffffffffffffffffffffffffffffffffffffff16815260200191505060206040518083038186803b1580156121d057600080fd5b505afa1580156121e4573d6000803e3d6000fd5b505050506040513d60208110156121fa57600080fd5b810190808051906020019092919050505083612d0f90919063ffffffff16565b613139565b7f3b5b764958bcf10eae6e214b635b729c52c8a4962688629cf597c3167cca20223342604051808373ffffffffffffffffffffffffffffffffffffffff1681526020018281526020019250505060405180910390a150565b60095481565b60065481565b60001515600f60003373ffffffffffffffffffffffffffffffffffffffff1673ffffffffffffffffffffffffffffffffffffffff16815260200190815260200160002060009054906101000a900460ff16151514612349576040517f08c379a000000000000000000000000000000000000000000000000000000000815260040180806020018281038252601c8152602001807f5374616b657220697320616c726561647920726567697374657265640000000081525060200191505060405180910390fd5b8073ffffffffffffffffffffffffffffffffffffffff163373ffffffffffffffffffffffffffffffffffffffff1614156123eb576040517f08c379a00000000000000000000000000000000000000000000000000000000081526004018080602001828103825260118152602001807f43616e6e6f742072656665722073656c6600000000000000000000000000000081525060200191505060405180910390fd5b81600160009054906101000a900473ffffffffffffffffffffffffffffffffffffffff1673ffffffffffffffffffffffffffffffffffffffff166370a08231336040518263ffffffff1660e01b8152600401808273ffffffffffffffffffffffffffffffffffffffff16815260200191505060206040518083038186803b15801561247557600080fd5b505afa158015612489573d6000803e3d6000fd5b505050506040513d602081101561249f57600080fd5b81019080805190602001909291905050501015612507576040517f08c379a00000000000000000000000000000000000000000000000000000000081526004018080602001828103825260218152602001806136106021913960400191505060405180910390fd5b600160009054906101000a900473ffffffffffffffffffffffffffffffffffffffff1673ffffffffffffffffffffffffffffffffffffffff166323b872dd3330856040518463ffffffff1660e01b8152600401808473ffffffffffffffffffffffffffffffffffffffff1681526020018373ffffffffffffffffffffffffffffffffffffffff1681526020018281526020019350505050602060405180830381600087803b1580156125b857600080fd5b505af11580156125cc573d6000803e3d6000fd5b505050506040513d60208110156125e257600080fd5b8101908080519060200190929190505050612648576040517f08c379a000000000000000000000000000000000000000000000000000000000815260040180806020018281038252602b815260200180613689602b913960400191505060405180910390fd5b61265f600854600454612d5990919063ffffffff16565b8210156126b7576040517f08c379a00000000000000000000000000000000000000000000000000000000081526004018080602001828103825260378152602001806136526037913960400191505060405180910390fd5b60006126e36126d26064600954612c3f90919063ffffffff16565b600454612c8990919063ffffffff16565b905060006126fc60045485612d0f90919063ffffffff16565b905060006127288261271a6064600354612c3f90919063ffffffff16565b612c8990919063ffffffff16565b9050600073ffffffffffffffffffffffffffffffffffffffff168473ffffffffffffffffffffffffffffffffffffffff161461280157600d60008573ffffffffffffffffffffffffffffffffffffffff1673ffffffffffffffffffffffffffffffffffffffff168152602001908152602001600020600081548092919060010191905055506127ff83600e60008773ffffffffffffffffffffffffffffffffffffffff1673ffffffffffffffffffffffffffffffffffffffff16815260200190815260200160002054612d5990919063ffffffff16565b505b6128656128178284612d0f90919063ffffffff16565b600b60003373ffffffffffffffffffffffffffffffffffffffff1673ffffffffffffffffffffffffffffffffffffffff16815260200190815260200160002054612d5990919063ffffffff16565b600b60003373ffffffffffffffffffffffffffffffffffffffff1673ffffffffffffffffffffffffffffffffffffffff168152602001908152602001600020819055506128cf6128be8287612d0f90919063ffffffff16565b600254612d5990919063ffffffff16565b6002819055506001600f60003373ffffffffffffffffffffffffffffffffffffffff1673ffffffffffffffffffffffffffffffffffffffff16815260200190815260200160002060006101000a81548160ff021916908315150217905550600a339080600181540180825580915050600190039060005260206000200160009091909190916101000a81548173ffffffffffffffffffffffffffffffffffffffff021916908373ffffffffffffffffffffffffffffffffffffffff1602179055507f2aef494423269f61b2dd75f1f1e289ef00d20b5a68bd5a6740c518cddd9a865b33866129c884600454612d5990919063ffffffff16565b87604051808573ffffffffffffffffffffffffffffffffffffffff1681526020018481526020018381526020018273ffffffffffffffffffffffffffffffffffffffff16815260200194505050505060405180910390a15050505050565b612a2e612c37565b73ffffffffffffffffffffffffffffffffffffffff1660008054906101000a900473ffffffffffffffffffffffffffffffffffffffff1673ffffffffffffffffffffffffffffffffffffffff1614612aee576040517f08c379a00000000000000000000000000000000000000000000000000000000081526004018080602001828103825260208152602001807f4f776e61626c653a2063616c6c6572206973206e6f7420746865206f776e657281525060200191505060405180910390fd5b600073ffffffffffffffffffffffffffffffffffffffff168173ffffffffffffffffffffffffffffffffffffffff161415612b74576040517f08c379a00000000000000000000000000000000000000000000000000000000081526004018080602001828103825260268152602001806135ea6026913960400191505060405180910390fd5b8073ffffffffffffffffffffffffffffffffffffffff1660008054906101000a900473ffffffffffffffffffffffffffffffffffffffff1673ffffffffffffffffffffffffffffffffffffffff167f8be0079c531659141344cd1fd0a4f28419497f9722a3daafe3b4186f6b6457e060405160405180910390a3806000806101000a81548173ffffffffffffffffffffffffffffffffffffffff021916908373ffffffffffffffffffffffffffffffffffffffff16021790555050565b60075481565b600033905090565b6000612c8183836040518060400160405280601a81526020017f536166654d6174683a206469766973696f6e206279207a65726f0000000000008152506133bf565b905092915050565b600080831415612c9c5760009050612d09565b6000828402905082848281612cad57fe5b0414612d04576040517f08c379a00000000000000000000000000000000000000000000000000000000081526004018080602001828103825260218152602001806136316021913960400191505060405180910390fd5b809150505b92915050565b6000612d5183836040518060400160405280601e81526020017f536166654d6174683a207375627472616374696f6e206f766572666c6f770000815250613485565b905092915050565b600080828401905083811015612dd7576040517f08c379a000000000000000000000000000000000000000000000000000000000815260040180806020018281038252601b8152602001807f536166654d6174683a206164646974696f6e206f766572666c6f77000000000081525060200191505060405180910390fd5b8091505092915050565b6000600f60003373ffffffffffffffffffffffffffffffffffffffff1673ffffffffffffffffffffffffffffffffffffffff16815260200190815260200160002060006101000a81548160ff021916908315150217905550600080612e4583613545565b915091508115612f2557600a6001600a805490500381548110612e6457fe5b9060005260206000200160009054906101000a900473ffffffffffffffffffffffffffffffffffffffff16600a8281548110612e9c57fe5b9060005260206000200160006101000a81548173ffffffffffffffffffffffffffffffffffffffff021916908373ffffffffffffffffffffffffffffffffffffffff160217905550600a805480612eef57fe5b6001900381819060005260206000200160006101000a81549073ffffffffffffffffffffffffffffffffffffffff021916905590555b505050565b600080600160009054906101000a900473ffffffffffffffffffffffffffffffffffffffff1673ffffffffffffffffffffffffffffffffffffffff166370a08231306040518263ffffffff1660e01b8152600401808273ffffffffffffffffffffffffffffffffffffffff16815260200191505060206040518083038186803b158015612fb657600080fd5b505afa158015612fca573d6000803e3d6000fd5b505050506040513d6020811015612fe057600080fd5b810190808051906020019092919050505011613064576040517f08c379a000000000000000000000000000000000000000000000000000000000815260040180806020018281038252600a8152602001807f456d70747920706f6f6c0000000000000000000000000000000000000000000081525060200191505060405180910390fd5b60006130f7600c60008573ffffffffffffffffffffffffffffffffffffffff1673ffffffffffffffffffffffffffffffffffffffff16815260200190815260200160002054600e60008673ffffffffffffffffffffffffffffffffffffffff1673ffffffffffffffffffffffffffffffffffffffff16815260200190815260200160002054612d5990919063ffffffff16565b90506131316064613123600560009054906101000a900460ff1660ff1684612c8990919063ffffffff16565b612c3f90919063ffffffff16565b915050919050565b80600160009054906101000a900473ffffffffffffffffffffffffffffffffffffffff1673ffffffffffffffffffffffffffffffffffffffff166370a08231336040518263ffffffff1660e01b8152600401808273ffffffffffffffffffffffffffffffffffffffff16815260200191505060206040518083038186803b1580156131c357600080fd5b505afa1580156131d7573d6000803e3d6000fd5b505050506040513d60208110156131ed57600080fd5b81019080805190602001909291905050501015613272576040517f08c379a00000000000000000000000000000000000000000000000000000000081526004018080602001828103825260198152602001807f496e73756666696369656e74204c4541442062616c616e63650000000000000081525060200191505060405180910390fd5b600160009054906101000a900473ffffffffffffffffffffffffffffffffffffffff1673ffffffffffffffffffffffffffffffffffffffff166323b872dd3330846040518463ffffffff1660e01b8152600401808473ffffffffffffffffffffffffffffffffffffffff1681526020018373ffffffffffffffffffffffffffffffffffffffff1681526020018281526020019350505050602060405180830381600087803b15801561332357600080fd5b505af1158015613337573d6000803e3d6000fd5b505050506040513d602081101561334d57600080fd5b8101908080519060200190929190505050507f4988b6b5c28044f2eb6386f504468e02344c07872faa4440e79284d63aba0bee338242604051808473ffffffffffffffffffffffffffffffffffffffff168152602001838152602001828152602001935050505060405180910390a150565b6000808311829061346b576040517f08c379a00000000000000000000000000000000000000000000000000000000081526004018080602001828103825283818151815260200191508051906020019080838360005b83811015613430578082015181840152602081019050613415565b50505050905090810190601f16801561345d5780820380516001836020036101000a031916815260200191505b509250505060405180910390fd5b50600083858161347757fe5b049050809150509392505050565b6000838311158290613532576040517f08c379a00000000000000000000000000000000000000000000000000000000081526004018080602001828103825283818151815260200191508051906020019080838360005b838110156134f75780820151818401526020810190506134dc565b50505050905090810190601f1680156135245780820380516001836020036101000a031916815260200191505b509250505060405180910390fd5b5060008385039050809150509392505050565b60008060005b600a805490508110156135db57600a818154811061356557fe5b9060005260206000200160009054906101000a900473ffffffffffffffffffffffffffffffffffffffff1673ffffffffffffffffffffffffffffffffffffffff168473ffffffffffffffffffffffffffffffffffffffff1614156135d05760018192509250506135e4565b60018101905061354b565b50600080915091505b91509156fe4f776e61626c653a206e6577206f776e657220697320746865207a65726f20616464726573734d757374206861766520656e6f7567682062616c616e636520746f207374616b65536166654d6174683a206d756c7469706c69636174696f6e206f766572666c6f774d7573742073656e64206174206c6561737420656e6f756768204c45414420746f2070617920726567697374726174696f6e206665652e5374616b65206661696c65642064756520746f206661696c656420616d6f756e74207472616e736665722e416d6f756e742069732062656c6f77206d696e696d756d207374616b652076616c75652ea26469706673582212204b9bb143fa7959f25a11f42b6d1d4a3c5da5ba2601f7b5f0bccd0e6de5e807df64736f6c634300060c0033",
  "source": "//\"SPDX-License-Identifier: UNLICENSED\"\r\n\r\npragma solidity ^0.6.0;\r\n\r\nimport '@openzeppelin/contracts/math/SafeMath.sol';\r\n\r\nimport '@openzeppelin/contracts/token/ERC20/IERC20.sol';\r\n\r\nimport '@openzeppelin/contracts/access/Ownable.sol';\r\n\r\ncontract LeadStake is Ownable {\r\n    //initializing safe computations\r\n    using SafeMath for uint;\r\n    \r\n    //LEAD contract address\r\n    address public lead;\r\n    \r\n    //total amount of staked lead\r\n    uint public totalStaked;\r\n    \r\n    //tax rate for staking in percentage\r\n    uint public stakingTaxRate;\r\n    \r\n    //tax for registration\r\n    uint public registrationTax;\r\n    \r\n    //monthly return of investment in percentage\r\n    uint8 public monthlyROI;\r\n    \r\n    //total amount of LEAD distributed\r\n    uint public totalDistributed;\r\n    \r\n    //tax rate for unstaking in percentage\r\n    uint public unstakingTaxRate;\r\n    \r\n    //minimum stakeable LEAD \r\n    uint public minimumStakeValue;\r\n    \r\n    //referral allocation from the registration tax\r\n    uint public referralTaxAllocation;\r\n    \r\n    //array of stakeholders' addresses\r\n    address[] internal stakeholders;\r\n    \r\n    //mapping of stakeholders' address to number of stakes\r\n    mapping(address => uint) public stakes;\r\n    \r\n    //mapping of stakeholders' address to stake rewards\r\n    mapping(address => uint) public stakeRewards;\r\n    \r\n    //mapping of stakeholders address to number of referrals \r\n    mapping(address => uint) public referralCount;\r\n    \r\n    //mapping of stakeholders address to referral rewards earned \r\n    mapping(address => uint) public referralRewards;\r\n    \r\n    //mapping of addresses to verify registered stakers\r\n    mapping(address => bool) public registered;\r\n    \r\n    //Events\r\n    event OnDistribute(address sender, uint time);\r\n    event OnWithdrawal(address sender, uint amount);\r\n    event OnStake(address sender, uint amount, uint tax);\r\n    event OnUnstake(address sender, uint amount, uint tax);\r\n    event OnDeposit(address sender, uint amount, uint time);\r\n    event OnRegisterAndStake(address stakeholder, uint amount, uint totalTax , address _referrer);\r\n    \r\n    /**\r\n     * @dev Sets the initial values for lead, stakingTaxRate, unstakingTaxRate, referralTaxAllocation,\r\n     * and minimumStakeValue.\r\n     */\r\n    constructor(\r\n        address _token,\r\n        uint8 _stakingTaxRate, \r\n        uint8 _unstakingTaxRate,\r\n        uint8 _monthlyROI,\r\n        uint _registrationTax,\r\n        uint _referralTaxAllocation,\r\n        uint _minimumStakeValue) public {\r\n            \r\n        lead = _token;\r\n        \r\n        stakingTaxRate = _stakingTaxRate;\r\n        \r\n        unstakingTaxRate = _unstakingTaxRate;\r\n        \r\n        monthlyROI = _monthlyROI;\r\n        \r\n        registrationTax = _registrationTax;\r\n        \r\n        referralTaxAllocation = _referralTaxAllocation;\r\n        \r\n        minimumStakeValue = _minimumStakeValue;\r\n    }\r\n    \r\n    //exclusive access for registered address\r\n    modifier onlyRegistered() {\r\n        \r\n        require(registered[msg.sender] == true, \"Staker must be registered\");\r\n        \r\n        _;\r\n    }\r\n    \r\n    //exclusive access for unregistered address\r\n    modifier onlyUnregistered() {\r\n        \r\n        require(registered[msg.sender] == false, \"Staker is already registered\");\r\n        _;\r\n    }\r\n    \r\n    /**\r\n     * registers and creates stakes for new stakeholders\r\n     * \r\n     * deducts the registration tax and staking tax\r\n     * \r\n     * calculates refferal bonus from the registration tax and sends it to the _referrer if there is one\r\n     * \r\n     * transfers LEAD from sender's address into the smart contract\r\n     *\r\n     * Emits an {OnRegisterAndStake} event..\r\n     */\r\n    function registerAndStake(uint _amount, address _referrer) external onlyUnregistered {\r\n        \r\n        require(msg.sender != _referrer, \"Cannot refer self\");\r\n        \r\n        //require(registered[_referrer] = true, \"Referrer must be registered\");\r\n        \r\n        require(IERC20(lead).balanceOf(msg.sender) >= _amount, \"Must have enough balance to stake\");\r\n        \r\n        require(IERC20(lead).transferFrom(msg.sender, address(this), _amount), \"Stake failed due to failed amount transfer.\");\r\n        \r\n        require(_amount >= registrationTax.add(minimumStakeValue), \"Must send at least enough LEAD to pay registration fee.\");\r\n        \r\n        uint referralBonus = registrationTax.mul(referralTaxAllocation.div(100));\r\n        \r\n        uint finalAmount = _amount.sub(registrationTax);\r\n        \r\n        uint stakingTax = (stakingTaxRate.div(100)).mul(finalAmount);\r\n        \r\n        if(_referrer != address(0x0)) {\r\n            \r\n            referralCount[_referrer]++;\r\n            \r\n            referralRewards[_referrer].add(referralBonus);\r\n            \r\n        } \r\n        \r\n        stakes[msg.sender] = stakes[msg.sender].add(finalAmount.sub(stakingTax));\r\n        \r\n        totalStaked = totalStaked.add(_amount.sub(stakingTax));\r\n        \r\n        registered[msg.sender] = true;\r\n        \r\n        stakeholders.push(msg.sender);\r\n        \r\n        emit OnRegisterAndStake(msg.sender, _amount, registrationTax.add(stakingTax), _referrer);\r\n    }\r\n    \r\n    /**\r\n     * creates stakes for already registered stakeholders\r\n     * \r\n     * deducts the staking tax from _amount inputted\r\n     * \r\n     * registers the remainder in the stakes of the sender\r\n     *\r\n     * Emits an {OnStake} event\r\n     */\r\n    function stake(uint _amount) external onlyRegistered {\r\n        \r\n        require(_amount >= minimumStakeValue, \"Amount is below minimum stake value.\");\r\n        \r\n        require(IERC20(lead).balanceOf(msg.sender) >= _amount, \"Must have enough balance to stake\");\r\n        \r\n        require(IERC20(lead).transferFrom(msg.sender, address(this), _amount), \"Stake failed due to failed amount transfer.\");\r\n        \r\n        uint stakingTax = (stakingTaxRate.div(100)).mul(_amount);\r\n        \r\n        totalStaked = totalStaked.add(_amount.sub(stakingTax));\r\n        \r\n        stakes[msg.sender] = stakes[msg.sender].add(_amount.sub(stakingTax));\r\n        \r\n        emit OnStake(msg.sender, _amount, stakingTax);\r\n    }\r\n\r\n    /**\r\n     * removes '_amount' stakes for already registered stakeholders\r\n     * \r\n     * deducts the unstaking tax from '_amount'\r\n     * \r\n     * transfers the sum of the remainder, stake rewards and referral rewards to the sender \r\n     * \r\n     * deregisters stakeholder if all the stakes are removed\r\n     *\r\n     * Emits an {OnStake} event\r\n     */\r\n    function unstake(uint _amount) external onlyRegistered {\r\n        \r\n        require(_amount >= stakes[msg.sender], 'Insufficient balance to withdraw');\r\n        \r\n        uint unstakingTax = (unstakingTaxRate.div(100)).mul(_amount);\r\n        \r\n        stakeRewards[msg.sender] = stakeRewards[msg.sender].add(referralRewards[msg.sender].add(_amount.sub(unstakingTax)));\r\n        \r\n        IERC20(lead).transfer(msg.sender, stakeRewards[msg.sender]);\r\n        \r\n        stakes[msg.sender] = stakes[msg.sender].sub(_amount);\r\n        \r\n        referralRewards[msg.sender] = 0;\r\n    \r\n        referralCount[msg.sender] = 0;\r\n        \r\n        totalStaked = totalStaked.sub(_amount);\r\n        \r\n        if(stakes[msg.sender] == 0) {\r\n            \r\n            _removeStakeholder(msg.sender);\r\n        }\r\n        \r\n        emit OnUnstake(msg.sender, _amount, unstakingTax);\r\n    }\r\n    \r\n    /**\r\n     * deregisters _stakeholder and removes address from stakeholders array\r\n     */\r\n    function _removeStakeholder(address _stakeholder) internal {\r\n        \r\n        registered[msg.sender] = false;\r\n        \r\n        (bool isStakeholder, uint i) = _isStakeholder(_stakeholder);\r\n        \r\n        if(isStakeholder){\r\n            \r\n            stakeholders[i] = stakeholders[stakeholders.length - 1];\r\n            \r\n            stakeholders.pop();\r\n        }\r\n    }\r\n    \r\n     /**\r\n     * checks if _address is a registered stakeholder\r\n     * \r\n     * returns 'true' and 'id number' if stakeholder and 'false' and '0'  if not\r\n     */\r\n    function _isStakeholder(address _address) internal view returns(bool, uint) {\r\n        \r\n        for (uint i = 0; i < stakeholders.length; i += 1){\r\n            \r\n            if (_address == stakeholders[i]) {\r\n                \r\n                return (true, i);\r\n            }\r\n        }\r\n        \r\n        return (false, 0);\r\n    }\r\n    \r\n     /**\r\n     * @dev Should be callsed once on a monthly basis\r\n     * distributes tokens to the stakeholders' rewards ready for withdrawal\r\n     */\r\n    function distribute() external onlyOwner {\r\n        \r\n        uint totalClaimable;\r\n        \r\n        for(uint i = 0; i < stakeholders.length; i++){\r\n            \r\n            uint reward = _calculatePayment(stakeholders[i]);\r\n            \r\n            stakeRewards[stakeholders[i]] = stakeRewards[stakeholders[i]].add(reward);\r\n            \r\n            totalClaimable = totalClaimable.add(stakes[stakeholders[i]].add(stakeRewards[stakeholders[i]].add(referralRewards[stakeholders[i]])));\r\n        }\r\n        \r\n        _deposit(totalClaimable.sub(IERC20(lead).balanceOf(address(this))));\r\n       \r\n        emit OnDistribute(msg.sender, now);\r\n    }\r\n\r\n    \r\n    function _calculatePayment(address _stakeholder) internal view returns(uint){\r\n        \r\n        require(IERC20(lead).balanceOf(address(this)) > 0, 'Empty pool');\r\n        \r\n        uint totalReward = referralRewards[_stakeholder].add(stakeRewards[_stakeholder]);\r\n        \r\n        return totalReward.mul(monthlyROI).div(100);                                                       //monthly earning\r\n    }\r\n    \r\n    \r\n    function _deposit(uint _amount) internal {\r\n        \r\n        require(IERC20(lead).balanceOf(msg.sender) >= _amount, 'Insufficient LEAD balance');                //owner must have enough LEAD in wallet\r\n        \r\n        IERC20(lead).transferFrom(msg.sender, address(this), _amount);\r\n       \r\n        emit OnDeposit(msg.sender, _amount, now);\r\n    }\r\n    \r\n    \r\n    function withdrawEarnings() public onlyRegistered returns(bool success) {\r\n        \r\n        require(stakeRewards[msg.sender] > 0 || referralRewards[msg.sender] > 0, 'No balance to withdraw'); \r\n        \r\n        uint totalReward = referralRewards[msg.sender].add(stakeRewards[msg.sender]);\r\n        \r\n        IERC20(lead).transfer(msg.sender, totalReward);\r\n        \r\n        stakeRewards[msg.sender] = 0;\r\n        \r\n        referralRewards[msg.sender] = 0;\r\n        \r\n        referralCount[msg.sender] = 0;\r\n        \r\n        emit OnWithdrawal(msg.sender, totalReward);\r\n        \r\n        return true;\r\n    }\r\n    \r\n    function setStakingTaxRate(uint8 _stakingTaxRate) external onlyOwner {\r\n        stakingTaxRate = _stakingTaxRate;\r\n    }\r\n    \r\n    function setUnstakingTaxRate(uint8 _unstakingTaxRate) external onlyOwner {\r\n        unstakingTaxRate = _unstakingTaxRate;\r\n    }\r\n    \r\n    function setMonthlyROI(uint8 _monthlyROI) external onlyOwner {\r\n        monthlyROI = _monthlyROI;\r\n    }\r\n    \r\n    function setRegistrationTax(uint _registrationTax) external onlyOwner {\r\n        registrationTax = _registrationTax;\r\n    }\r\n    \r\n    function setReferralTaxAllocation(uint _referralTaxAllocation) external onlyOwner {\r\n        referralTaxAllocation = _referralTaxAllocation;\r\n    }\r\n    \r\n    function setMinimumStakeValue(uint _minimumStakeValue) external onlyOwner {\r\n        minimumStakeValue = _minimumStakeValue;\r\n    }\r\n\r\n}",
  "sourcePath": "C:\\Users\\LENOVO\\Desktop\\THE GRIND\\Blockchain Dev\\gitrepo\\LeadStake\\contracts\\LeadStake.sol",
  "compiler": {
    "name": "solc",
    "version": "0.6.12+commit.27d51765.Emscripten.clang"
  },
  "schemaVersion": "3.0.23",
  "updatedAt": "2020-09-11T21:11:11.560Z",
  "networkType": "ethereum",
  "devdoc": {
    "kind": "dev",
    "methods": {
      "constructor": {
        "details": "Sets the initial values for lead, stakingTaxRate, unstakingTaxRate, referralTaxAllocation, and minimumStakeValue."
      },
      "distribute()": {
        "details": "Should be callsed once on a monthly basis distributes tokens to the stakeholders' rewards ready for withdrawal"
      },
      "owner()": {
        "details": "Returns the address of the current owner."
      },
      "renounceOwnership()": {
        "details": "Leaves the contract without owner. It will not be possible to call `onlyOwner` functions anymore. Can only be called by the current owner. NOTE: Renouncing ownership will leave the contract without an owner, thereby removing any functionality that is only available to the owner."
      },
      "transferOwnership(address)": {
        "details": "Transfers ownership of the contract to a new account (`newOwner`). Can only be called by the current owner."
      }
    },
    "version": 1
  },
  "userdoc": {
    "kind": "user",
    "methods": {
      "registerAndStake(uint256,address)": {
        "notice": "registers and creates stakes for new stakeholders  deducts the registration tax and staking tax  calculates refferal bonus from the registration tax and sends it to the _referrer if there is one  transfers LEAD from sender's address into the smart contract Emits an {OnRegisterAndStake} event.."
      },
      "stake(uint256)": {
        "notice": "creates stakes for already registered stakeholders  deducts the staking tax from _amount inputted  registers the remainder in the stakes of the sender Emits an {OnStake} event"
      },
      "unstake(uint256)": {
        "notice": "removes '_amount' stakes for already registered stakeholders  deducts the unstaking tax from '_amount'  transfers the sum of the remainder, stake rewards and referral rewards to the sender   deregisters stakeholder if all the stakes are removed Emits an {OnStake} event"
      }
    },
    "version": 1
  }
}